:100000000C94E2010C94FF010C94FF010C94FF018D
:100010000C94FF010C94FF010C94FF010C94FF0160
:100020000C94FF010C94FF010C94FF010C94FF0150
:100030000C94FF010C948D030C94B9030C94610390
:100040000C94B1020C94DD020C9409030C9435035A
:100050000C9485020C942D020C9459020C9401020C
:100060000C94FF010C94FF010C94FF010C94FF0110
:100070000C94FF010C94FF010C94FF010C941104EB
:100080000C943D040C9469040C9495040C94E503C1
:100090000C94BF060C94FF010C9493060C94FF0182
:1000A0000C94FF010C94ED040C9419050C94450577
:1000B0000C9471050C94C1040C94C9050C94F505BD
:1000C0000C9421060C944D060C949D050C94380755
:1000D0000C94FF010C940C070C94FF010C94FF018D
:1000E0000C94FF012500240023002B002A00290086
:1000F0002E002D002C0034003300320002010101DB
:100100000001E40040EA0004EA0008F00008F00002
:1001100010F00020F00080F60020FC0001FC00023E
:10012000FC0008FC0010FC0020FC00400000000067
:1001300000000000000000000201A302006E0002A7
:1001400047003500024400060000AB02006E0004C8
:1001500048003500044400041701C202016F000288
:1001600088003600028000060000CA02016F000409
:100170008A003600048000040201D202016F0008E8
:100180008C003600088000020000E90202700002C4
:10019000B300370002B000060000F1020270000454
:1001A000B400370004B00004290108030371000201
:1001B00098003800029000060B0110030371000440
:1001C0009A003800049000040E011803037100081F
:1001D0009C0038000890000211012F0304720002F5
:1001E000A800390002A000062001370304720004B1
:1001F000AA00390004A0000423013F030472000890
:10020000AC00390008A00002260156030573000265
:1002100028013A000220010600005E030573000475
:100220002A013A0004200104000066030573000857
:100230002C013A000820010200009402460045000B
:100240000000023388440001440002450008000019
:10025000013A016E000135000100000000010000BC
:10026000010000010000B30284008100FF0003FFD1
:10027000DF8000018000028100088100105A016FB8
:10028000000136000186006F00203600208100400A
:100290000000DA02B200B10000FF023388B00001B2
:1002A000B00002B100080000018A017000013700AF
:1002B0000100000000010000010000010000F9023F
:1002C00094009100FF0003FFDF9000019000029175
:1002D0000008910010AA0171000138000196007118
:1002E000002038002091004014012003A400A10048
:1002F000FF0003FFDFA00001A00002A10008A10091
:1003000010DA01720001390001A6007200203900E4
:1003100020A100400000470324012101FF0003FF4A
:10032000DF2001012001022101082101100A0273CE
:1003300000013A000126017300203A00202101400B
:10034000000088136002740248454C4C4F00303165
:100350003233343536373839414243444546000B51
:100360000F00000000010008004000000100040030
:10037000000100080020004000800000010004008F
:1003800001FFFF0203FFFFFFFFFF05FFFFFF070065
:1003900001FFFF020355736572204572726F723A56
:1003A00025640A00576562626F744C696220457269
:1003B000726F723A25640A00721A281B661BFD1AB6
:1003C0002F1B131B11241FBECFEFD1E2DEBFCDBF09
:1003D00012E0A0E0B2E0E4ECFBE302C005900D9275
:1003E000A439B107D9F713E0A4E9B2E001C01D9226
:1003F000AC3BB107E1F70E941A0B0C946D1D0C94F5
:1004000000001F920F920FB60F9211242F933F936B
:100410004F935F936F937F938F939F93AF93BF930C
:10042000EF93FF93DF93CF93CDB7DEB78AE392E0EC
:100430000E945611CF91DF91FF91EF91BF91AF9143
:100440009F918F917F916F915F914F913F912F91EC
:100450000F900FBE0F901F9018951F920F920FB61E
:100460000F9211242F933F934F935F936F937F933A
:100470008F939F93AF93BF93EF93FF93DF93CF93AC
:10048000CDB7DEB78AE391E00E948311CF91DF916F
:10049000FF91EF91BF91AF919F918F917F916F915C
:1004A0005F914F913F912F910F900FBE0F901F9032
:1004B00018951F920F920FB60F9211242F933F930E
:1004C0004F935F936F937F938F939F93AF93BF935C
:1004D000EF93FF93DF93CF93CDB7DEB78AE491E03C
:1004E0000E948311CF91DF91FF91EF91BF91AF9166
:1004F0009F918F917F916F915F914F913F912F913C
:100500000F900FBE0F901F9018951F920F920FB66D
:100510000F9211242F933F934F935F936F937F9389
:100520008F939F93AF93BF93EF93FF93DF93CF93FB
:10053000CDB7DEB786E692E00E945611CF91DF91EB
:10054000FF91EF91BF91AF919F918F917F916F91AB
:100550005F914F913F912F910F900FBE0F901F9081
:1005600018951F920F920FB60F9211242F933F935D
:100570004F935F936F937F938F939F93AF93BF93AB
:10058000EF93FF93DF93CF93CDB7DEB786E692E08C
:100590000E947411CF91DF91FF91EF91BF91AF91C4
:1005A0009F918F917F916F915F914F913F912F918B
:1005B0000F900FBE0F901F9018951F920F920FB6BD
:1005C0000F9211242F933F934F935F936F937F93D9
:1005D0008F939F93AF93BF93EF93FF93DF93CF934B
:1005E000CDB7DEB78AE591E00E948311CF91DF910C
:1005F000FF91EF91BF91AF919F918F917F916F91FB
:100600005F914F913F912F910F900FBE0F901F90D0
:1006100018951F920F920FB60F9211242F933F93AC
:100620004F935F936F937F938F939F93AF93BF93FA
:10063000EF93FF93DF93CF93CDB7DEB78AE691E0D8
:100640000E948311CF91DF91FF91EF91BF91AF9104
:100650009F918F917F916F915F914F913F912F91DA
:100660000F900FBE0F901F9018951F920F920FB60C
:100670000F9211242F933F934F935F936F937F9328
:100680008F939F93AF93BF93EF93FF93DF93CF939A
:10069000CDB7DEB78AE791E00E948311CF91DF9159
:1006A000FF91EF91BF91AF919F918F917F916F914A
:1006B0005F914F913F912F910F900FBE0F901F9020
:1006C00018951F920F920FB60F9211242F933F93FC
:1006D0004F935F936F937F938F939F93AF93BF934A
:1006E000EF93FF93DF93CF93CDB7DEB782E992E02C
:1006F0000E945611CF91DF91FF91EF91BF91AF9181
:100700009F918F917F916F915F914F913F912F9129
:100710000F900FBE0F901F9018951F920F920FB65B
:100720000F9211242F933F934F935F936F937F9377
:100730008F939F93AF93BF93EF93FF93DF93CF93E9
:10074000CDB7DEB78AE891E00E948311CF91DF91A7
:10075000FF91EF91BF91AF919F918F917F916F9199
:100760005F914F913F912F910F900FBE0F901F906F
:1007700018951F920F920FB60F9211242F933F934B
:100780004F935F936F937F938F939F93AF93BF9399
:10079000EF93FF93DF93CF93CDB7DEB78AE991E074
:1007A0000E948311CF91DF91FF91EF91BF91AF91A3
:1007B0009F918F917F916F915F914F913F912F9179
:1007C0000F900FBE0F901F9018951F920F920FB6AB
:1007D0000F9211242F933F934F935F936F937F93C7
:1007E0008F939F93AF93BF93EF93FF93DF93CF9339
:1007F000CDB7DEB78EEB92E00E945611CF91DF911C
:10080000FF91EF91BF91AF919F918F917F916F91E8
:100810005F914F913F912F910F900FBE0F901F90BE
:1008200018951F920F920FB60F9211242F933F939A
:100830004F935F936F937F938F939F93AF93BF93E8
:10084000EF93FF93DF93CF93CDB7DEB78EEB92E0BC
:100850000E947411CF91DF91FF91EF91BF91AF9101
:100860009F918F917F916F915F914F913F912F91C8
:100870000F900FBE0F901F9018951F920F920FB6FA
:100880000F9211242F933F934F935F936F937F9316
:100890008F939F93AF93BF93EF93FF93DF93CF9388
:1008A000CDB7DEB78AEA91E00E948311CF91DF9144
:1008B000FF91EF91BF91AF919F918F917F916F9138
:1008C0005F914F913F912F910F900FBE0F901F900E
:1008D00018951F920F920FB60F9211242F933F93EA
:1008E0004F935F936F937F938F939F93AF93BF9338
:1008F000EF93FF93DF93CF93CDB7DEB78AEB91E011
:100900000E948311CF91DF91FF91EF91BF91AF9141
:100910009F918F917F916F915F914F913F912F9117
:100920000F900FBE0F901F9018951F920F920FB649
:100930000F9211242F933F934F935F936F937F9365
:100940008F939F93AF93BF93EF93FF93DF93CF93D7
:10095000CDB7DEB78AEC91E00E948311CF91DF9191
:10096000FF91EF91BF91AF919F918F917F916F9187
:100970005F914F913F912F910F900FBE0F901F905D
:1009800018951F920F920FB60F9211242F933F9339
:100990004F935F936F937F938F939F93AF93BF9387
:1009A000EF93FF93DF93CF93CDB7DEB78AEE92E05C
:1009B0000E945611CF91DF91FF91EF91BF91AF91BE
:1009C0009F918F917F916F915F914F913F912F9167
:1009D0000F900FBE0F901F9018951F920F920FB699
:1009E0000F9211242F933F934F935F936F937F93B5
:1009F0008F939F93AF93BF93EF93FF93DF93CF9327
:100A0000CDB7DEB78AEE92E00E947411CF91DF91EC
:100A1000FF91EF91BF91AF919F918F917F916F91D6
:100A20005F914F913F912F910F900FBE0F901F90AC
:100A300018951F920F920FB60F9211242F933F9388
:100A40004F935F936F937F938F939F93AF93BF93D6
:100A5000EF93FF93DF93CF93CDB7DEB78AED91E0AD
:100A60000E948311CF91DF91FF91EF91BF91AF91E0
:100A70009F918F917F916F915F914F913F912F91B6
:100A80000F900FBE0F901F9018951F920F920FB6E8
:100A90000F9211242F933F934F935F936F937F9304
:100AA0008F939F93AF93BF93EF93FF93DF93CF9376
:100AB000CDB7DEB78AEE91E00E948311CF91DF912E
:100AC000FF91EF91BF91AF919F918F917F916F9126
:100AD0005F914F913F912F910F900FBE0F901F90FC
:100AE00018951F920F920FB60F9211242F933F93D8
:100AF0004F935F936F937F938F939F93AF93BF9326
:100B0000EF93FF93DF93CF93CDB7DEB78AEF91E0FA
:100B10000E948311CF91DF91FF91EF91BF91AF912F
:100B20009F918F917F916F915F914F913F912F9105
:100B30000F900FBE0F901F9018951F920F920FB637
:100B40000F9211242F933F934F935F936F937F9353
:100B50008F939F93AF93BF93EF93FF93DF93CF93C5
:100B6000CDB7DEB786E193E00E945611CF91DF91B9
:100B7000FF91EF91BF91AF919F918F917F916F9175
:100B80005F914F913F912F910F900FBE0F901F904B
:100B900018951F920F920FB60F9211242F933F9327
:100BA0004F935F936F937F938F939F93AF93BF9375
:100BB000EF93FF93DF93CF93CDB7DEB786E193E05A
:100BC0000E947411CF91DF91FF91EF91BF91AF918E
:100BD0009F918F917F916F915F914F913F912F9155
:100BE0000F900FBE0F901F9018951F920F920FB687
:100BF0000F9211242F933F934F935F936F937F93A3
:100C00008F939F93AF93BF93EF93FF93DF93CF9314
:100C1000CDB7DEB78AE092E00E948311CF91DF91D9
:100C2000FF91EF91BF91AF919F918F917F916F91C4
:100C30005F914F913F912F910F900FBE0F901F909A
:100C400018951F920F920FB60F9211242F933F9376
:100C50004F935F936F937F938F939F93AF93BF93C4
:100C6000EF93FF93DF93CF93CDB7DEB78AE192E0A6
:100C70000E948311CF91DF91FF91EF91BF91AF91CE
:100C80009F918F917F916F915F914F913F912F91A4
:100C90000F900FBE0F901F9018951F920F920FB6D6
:100CA0000F9211242F933F934F935F936F937F93F2
:100CB0008F939F93AF93BF93EF93FF93DF93CF9364
:100CC000CDB7DEB78AE292E00E948311CF91DF9127
:100CD000FF91EF91BF91AF919F918F917F916F9114
:100CE0005F914F913F912F910F900FBE0F901F90EA
:100CF0001895DF93CF930F92CDB7DEB789838BE042
:100D000092E069810E946D090F90CF91DF91089563
:100D1000DF93CF93CDB7DEB78BE092E00E94BE09A0
:100D2000CF91DF9108951F920F920FB60F92112469
:100D30002F933F934F935F936F937F938F939F93E3
:100D4000AF93BF93EF93FF93DF93CF93CDB7DEB70E
:100D50008BE092E00E94E409CF91DF91FF91EF9147
:100D6000BF91AF919F918F917F916F915F914F91C3
:100D70003F912F910F900FBE0F901F9018951F92CB
:100D80000F920FB60F9211242F933F934F935F93BF
:100D90006F937F938F939F93AF93BF93EF93FF9343
:100DA000DF93CF93CDB7DEB780912B0290912C02C9
:100DB000FC0120818BE092E0622F0E94170ACF9104
:100DC000DF91FF91EF91BF91AF919F918F917F91B3
:100DD0006F915F914F913F912F910F900FBE0F90A8
:100DE0001F901895DF93CF930F92CDB7DEB789830D
:100DF00088E392E069810E946D090F90CF91DF91A5
:100E00000895DF93CF93CDB7DEB788E392E00E94D9
:100E1000BE09CF91DF9108951F920F920FB60F92E6
:100E200011242F933F934F935F936F937F938F93EF
:100E30009F93AF93BF93EF93FF93DF93CF93CDB780
:100E4000DEB788E392E00E94E409CF91DF91FF9141
:100E5000EF91BF91AF919F918F917F916F915F9132
:100E60004F913F912F910F900FBE0F901F901895AB
:100E70001F920F920FB60F9211242F933F934F930F
:100E80005F936F937F938F939F93AF93BF93EF93F2
:100E9000FF93DF93CF93CDB7DEB780915802909147
:100EA0005902FC01208188E392E0622F0E94170A18
:100EB000CF91DF91FF91EF91BF91AF919F918F9172
:100EC0007F916F915F914F913F912F910F900FBE46
:100ED0000F901F901895DF93CF93CDB7DEB78EE5B7
:100EE00092E00E94860789E796E00E94A41189E7B4
:100EF00096E00E94B80C8BE092E040E052EC61E09A
:100F000070E00E943409CF91DF910895DF93CF9371
:100F100000D0CDB7DEB79A838983E981FA818081D9
:100F200091816FEF0E94CD0B0F900F90CF91DF91C9
:100F30000895DF93CF93CDB7DEB788E892E026E639
:100F400032E0B9010E94120E88E392E040E052ECD8
:100F500061E070E00E943409CF91DF910895DF9342
:100F6000CF93CDB7DEB782E091E060E00E94BB078F
:100F7000CF91DF910895DF93CF9300D00F92CDB73B
:100F8000DEB79A8389836B8389819A8190937703F3
:100F9000809376038B818170982F91708091780374
:100FA0008E7F892B80937803809178038D7F809347
:100FB000780386E793E00E94E3070F900F900F906D
:100FC000CF91DF910895DF93CF9300D0CDB7DEB7F7
:100FD0009A83898389819A816FEF0E94930C0F9085
:100FE0000F90CF91DF910895DF93CF93CDB7DEB708
:100FF000CF91DF910895DF93CF93CDB7DEB70E94F5
:101000009907CF91DF910895DF93CF9300D000D05F
:10101000CDB7DEB769837A838B839C8380E090E0D1
:10102000A0E0B0E0BC01CD010F900F900F900F90A9
:10103000CF91DF9108950F931F93DF93CF93CDB797
:10104000DEB72F970FB6F894DEBF0FBECDBF68870F
:1010500079878A879B872C873D874E875F878EE5B8
:1010600092E00E94A3088EE592E00E94BD088C8564
:101070009D85AE85BF8528EE33E040E050E0BC01A1
:10108000CD010E94A31DDA01C9018C839D83AE832B
:10109000BF838C819D81AE81BF8120E137E240E03A
:1010A00050E0BC01CD010E94A31DDC01CB019B835C
:1010B0008A838A819B8123E18838920744F080E10A
:1010C00097E22A813B81821B930B9B838A838A81CF
:1010D0009B8160E070E048E853E121E83FEF0FE7D3
:1010E00010E00E94710B898380E692E06FE30E941A
:1010F000380A84E792E06FE30E94380A0E940107F1
:101100000E94120D28E433E000D00F92EDB7FEB735
:10111000319681E08083328321830E943A0D0F90C3
:101120000F900F9080E090E0A0E0B0E0BC01CD0116
:101130002F960FB6F894DEBF0FBECDBFCF91DF91D3
:101140001F910F910895DF93CF9300D00F92CDB7E9
:10115000DEB79A838983E981FA81808191810E9437
:10116000B80B1B82882311F481E08B838B810F9055
:101170000F900F90CF91DF910895DF93CF9300D020
:10118000CDB7DEB79A838983E981FA818081918125
:101190000E94B80B0F900F90CF91DF910895DC0162
:1011A00017968D919C9118970296FC012591349188
:1011B000CD01F90109950895CF93DF93EC018E815C
:1011C0008E7F8E83EC89FD89309721F08E899F89EF
:1011D0006FEF0995EF81F8853896259134912115A7
:1011E000310519F0CE01F9010995DF91CF910895EC
:1011F000CF93DF93EC018E8181608E83EF81F88540
:101200003A96259134912115310519F0CE01F90155
:101210000995EC89FD89309721F08E899F8960E0DE
:101220000995DF91CF910895DC0117968D919C91DE
:101230001897FC0125913491CD01F9010995089584
:10124000DC011796ED91FC91189736962591349113
:101250009FB7789416968C91169780FFFBCF9FBF0F
:10126000CD01F90109950895EF92FF920F931F9315
:10127000CF93DF93EC017A018B01F8948B8988235B
:1012800081F02B853C858D859E852817390721F0B7
:10129000C90160E00E94CD0B8D859E856FEF0E9495
:1012A000CD0B8E8181608E838E818B7F8E838E812C
:1012B0008D7F8E838F8198850496FC0125913491D2
:1012C000CE01B801A701F90109957894DF91CF917A
:1012D0001F910F91FF90EF9008950F931F93CF935D
:1012E000DF93EC01062F8A819B81892B19F419C0A9
:1012F0000E94E90A8A819B810E94D30A8823C1F750
:101300001FB7F8948E8181FD04C08E8182608E8328
:101310000DC08A819B81602F0E94AD0A0EC00E9481
:10132000E90A8E8180FFFBCF1FB7F894CE010E949F
:10133000DC08CE01602F0E94CF081FBF802FDF91F5
:10134000CF911F910F910895EF92FF920F931F93EA
:10135000CF93DF937C018B01EA0107C0F801619113
:101360008F01C7010E946D0921972097B9F7DF917E
:10137000CF911F910F91FF90EF900895DF93CF933E
:101380000F92CDB7DEB7FC0180819181009771F09B
:10139000BE016F5F7F4F0E94800A882319F44FEFD0
:1013A0005FEF0DC08981482F50E009C02FB7F89436
:1013B000418552858FEF9FEF928781872FBFCA01AA
:1013C0000F90CF91DF910895EF92FF921F93DF93DB
:1013D000CF930F92CDB7DEB77C01FC01868181FFF0
:1013E00019C01FB7F894F70182819381BE016F5F26
:1013F0007F4F0E94800A882329F0C70169810E94DB
:10140000CF080DC0C7010E94F808F70186818D7FC3
:10141000868305C01FB7F894C7010E94F8081FBF54
:101420000F90CF91DF911F91FF90EF900895CF9390
:10143000DF93EC01862F90E09A8789878C819D81CC
:10144000892B29F0EC81FD81862F09950EC08881BA
:101450009981009751F00E94AD0A882331F48E8162
:1014600084608E8385EF0E943313DF91CF910895BE
:101470001F93CF93DF93EC01162F61380CF411E822
:10148000E881F981309779F0259134912115310562
:1014900051F08B8181FD02C0612F02C0612F6195E7
:1014A000CE01F90109951A83DF91CF911F9108951B
:1014B000DC01962F917013968C9113978E7F892B58
:1014C00013968C9313978D919C911197009751F0DF
:1014D000FC013296259134912115310519F0CD0189
:1014E000F90109950895FC018FB7F8947183608321
:1014F0005383428315821482178216828FBF089508
:10150000CF93DF93EC01DB012FB7F894009701F143
:101510008A819B81892BE1F08C819D81892BC1F08F
:10152000E881F9818E819F81E80FF91F80818C937A
:101530008E819F816A817B8101960E948F1D9F838E
:101540008E838C819D8101979D838C838FEF01C059
:1015500080E02FBFDF91CF9108951F93CF93DF934A
:10156000EC01462F1FB7F8942C813D816A817B8165
:101570002617370710F080E011C08E819F81820FFF
:10158000931F0E948F1DE881F981E80FF91F4083A6
:101590008C819D8101969D838C838FEF1FBFDF918E
:1015A000CF911F910895FC018FB7F8948FBF40E051
:1015B00024813581828193812817390709F441E01C
:1015C000842F0895FC018FB7F894158214828FBF81
:1015D00008958FB77894000000000000000000001C
:1015E000000000008FBF08959C01FC01A591B491FB
:1015F0002E5F3F4FF90194918C91892B8C93089524
:101600009C01FC01A591B4912E5F3F4FF90194918B
:101610008C91892309F08FEF08959C01FC01A5911D
:10162000B4912E5F3F4FF90194918C91909589234D
:101630008C9308956F927F928F929F92AF92BF92F8
:10164000CF92DF92EF92FF920F931F930E94F407C5
:101650000E94AF070E9459160E946B070E94FB0769
:101660000E94EB160E94D8125B016C010E940408D4
:101670007B018C016624772443018FB778940000A6
:101680000000000000000000000000008FBFE11417
:10169000F1040105110559F412C08FB778940000C8
:1016A0000000000000000000000000008FBFC60125
:1016B000B501A80197010E941119882371F30E94B6
:1016C000D8125B016C010894611C711C811C911C77
:1016D000C401B301A60195010E941B087B018C0186
:1016E000CCCF4F925F926F927F928F929F92AF92E8
:1016F000BF92CF92DF92EF92FF920F931F932B0135
:101700003A0159017801E21AF30A0027F7FC009523
:10171000102F9C01261B370B442737FD4095542F73
:10172000C801B7010E94701D64187508882477FCF1
:101730008094982CA40193010E94C51DC901DA016F
:10174000CC24B7FCC094DC2CA80EB91ECA1EDB1E2C
:10175000C5011F910F91FF90EF90DF90CF90BF9048
:10176000AF909F908F907F906F905F904F90089573
:101770009C01009781F0FC01859194910496FC01F5
:10178000A591B4912E5F3F4FF90194918C918923DB
:1017900011F08FEF089580E00895CF93DF939C01BF
:1017A0000097F9F0FC0145915491CA010296FC01A1
:1017B000A591B491FA01C591D4912E5F3F4FF901E3
:1017C00024913FB7F8948C91922F909589238C9314
:1017D000888189238883662319F08881822B8883F6
:1017E0003FBFDF91CF9108959C01009789F0FC01E4
:1017F000859194910296FC01A591B4912E5F3F4F83
:10180000F90194912FB7F8948C91892B8C932FBF69
:1018100008959C01009781F0FC01859194910296B6
:10182000FC01A591B4912E5F3F4FF90194918C91E9
:10183000892311F08FEF089580E00895CF93DF930F
:101840009C010097E1F0FC0185919491FC01A59128
:10185000B4910296FC01C591D4912E5F3F4FF901DE
:1018600024918881822341F09FB7F8948C9182273C
:101870008C939FBF000003C087EF0E943313DF915A
:10188000CF910895CF93DF939C010097E9F0FC017D
:1018900085919491FC01A591B4910296FC01C591AA
:1018A000D4912E5F3F4FF90124918881822349F022
:1018B0009FB7F8948C91209582238C939FBF000052
:1018C00003C087EF0E943313DF91CF910895CF9328
:1018D000DF939C010097E1F0FC0185919491FC015C
:1018E000A591B4910296FC01C591D4912E5F3F4F12
:1018F000F90124918881822341F09FB7F8948C915B
:10190000822B8C939FBF000003C087EF0E9433138C
:10191000DF91CF910895662319F00E94670C089516
:101920000E94420C08951F93CF93DF93EC01162F72
:101930002881398121153105B1F08A8181FD06C0E8
:10194000C9010E94F40B8A8182608A838A8180FDAA
:1019500005C080E0112309F481E0182F8881998166
:10196000612F0E948B0CDF91CF911F9108950895F4
:101970002091910230919202909392028093910271
:10198000C90108951F93182F8A3031F4E091910214
:10199000F09192028DE00995E0919102F09192020E
:1019A000812F09951F9108951F93CF93DF93182FCF
:1019B000EB0104C0812F0E94C20C21972097D1F720
:1019C000DF91CF911F910895CF93DF93EC010097A2
:1019D00021F406C021960E94C20C88818823D1F789
:1019E000DF91CF910895CF93DF93EC01009719F425
:1019F00007C00E94C20CFE01219684918823C9F77A
:101A0000DF91CF9108958AE00E94C20C0895E82FDB
:101A1000F0E0EF70F070E25BFC4FE4918E2F0E94DB
:101A2000C20C08951F93182F82958F700E94070D86
:101A3000812F0E94070D1F9108951F93182F892F42
:101A40000E94120D812F0E94120D1F910895EF9296
:101A5000FF920F931F937B018C01C801AA27BB271C
:101A60000E941D0DC7010E941D0D1F910F91FF9037
:101A7000EF9008957F928F929F92AF92BF92CF92F4
:101A8000DF92EF92FF920F931F93DF93CF930F920A
:101A9000CDB7DEB77988CA88DB8864E1E62EF12C01
:101AA000EC0EFD1E17C0882389F480E090E00F90B3
:101AB000CF91DF911F910F91FF90EF90DF90CF902A
:101AC000BF90AF909F908F907F9008950E94C20C1E
:101AD0005701750196012F5F3F4F772021F0F601E6
:101AE0006901849103C0F601808169018532D9F6CC
:101AF0002F5F3F4F772021F0F6016901949103C0D9
:101B0000F601908169019337A1F0943738F4933648
:101B1000D9F0943641F0953209F525C0953719F082
:101B20009837E1F422C000E117E25AE0852E912CAB
:101B300021C042E0A42EB12CAE0CBF1CF701808165
:101B400091810E94E40CC5CF32E0A32EB12CAE0CE3
:101B5000BF1CF70180810E94C20CBBCF85E2998334
:101B60000E94C20C9981892FB1CF00E010E120E1E1
:101B7000822E912C82E0A82EB12CAE0CBF1CF70156
:101B8000E080F180943651F4F7FE14C0F094E194B3
:101B9000F108F3948DE20E94C20C0CC0953769F4F1
:101BA00009C0C8016AE070E00E948F1D8B0162309D
:101BB000710518F0E016F106A0F3C701B8010E9404
:101BC0008F1D862F0E94070DC701B8010E948F1D2F
:101BD0007C01C801B4010E948F1D8B016115710544
:101BE00061F777CFCF93DF93EC01FB019281858181
:101BF000981788F4892F90E0880F991F20813181F0
:101C0000280F391FF901A591B49116968D919C91D9
:101C100017970E94420CCE0103960E940D0BDF9194
:101C2000CF9108952F923F924F925F926F927F9241
:101C30008F929F92AF92BF92CF92DF92EF92FF92DC
:101C40000F931F93CF93DF935C01EB019B01295E00
:101C50003F4FF90165907490F901259034902696D4
:101C6000FE0184912697882309F4B7C02896FE01C7
:101C700084912897823008F4B0C0CE010496FC010C
:101C8000A591B4918C9190E087709070892B09F4A4
:101C9000A8C0FE01A591B4918D909C9011971E96BD
:101CA0008C91882319F082EF0E943313D501159689
:101CB0008C91159712968C9364E170E080E090E02F
:101CC000A4010E945810F5017783668360707070DC
:101CD000611571058105910519F086EE0E94331397
:101CE000D50115968C91E82EFF240894E108F1089F
:101CF0006701CC0CDD1C3FE5432E33E0532E35C08D
:101D0000D501ED91FC911197EC0DFD1D05911491FC
:101D1000F80151824082B582A48216968D919C91E1
:101D20001797938B828B868197810E94F40BD80141
:101D300016968D919C9117970E94420CF801608530
:101D4000718542855385C8010E94DD0FC8016FEF80
:101D50000E94580AC80160E00E94380A0894E1080D
:101D6000F1088EEF9FEFC80ED91E9FEFE9169FEF87
:101D7000F90631F60E94A1118823D1F58101005F97
:101D80001F4FDFB6F894862D972D0E940B14D501B6
:101D900016964D915C911797480F591F862D972DD8
:101DA0006EE27FE095010E948416C8010E940B1428
:101DB000F50146815781480F591FC80162EF7DE048
:101DC00095010E948416C80103960E940D0BCE0156
:101DD000B4010E941A15DFBE0BC089EF0E943313B5
:101DE00007C0CE0169E170E00E9493144C015ECF00
:101DF000DF91CF911F910F91FF90EF90DF90CF90E7
:101E0000BF90AF909F908F907F906F905F904F901A
:101E10003F902F9008950F931F93CF93DF93EC0182
:101E20002C853D850E851F85862F992787FD9095EA
:101E300061E87FEF4FE750E00E947C1B9C0188899E
:101E400099892817390729F08FB7F894398B288B8F
:101E50008FBFDF91CF911F910F9108958F929F9225
:101E6000AF92BF92CF92DF92EF92FF920F931F93A8
:101E7000CF93DF935C01EB018C010E5F1F4FF801E4
:101E800094918CE2989F700111248AE392E0E80E0D
:101E9000F91EF70177968591949170E1872E912C28
:101EA000880E991E63E1C62ED12CC80ED91E02C021
:101EB0000E94E90AC6010E94000B8823C9F78885A1
:101EC000882321F08A818F5F8A8310C08FEF8887F3
:101ED000F80184912CE2829FC0011124865C9D4F01
:101EE0000E940411BC01C5010E94D6139A818D8104
:101EF000981709F43CC0891718F41A821C821B82B7
:101F00008A8190E0880F991FE881F981E80FF91F15
:101F100005911491C7010E9404117C01F80183818D
:101F200080FF04C0868197810E94670CF801608958
:101F300071896E0D7F1DC4010E94D613C4010896DD
:101F40000E94F40AC6010E94F40AF80166857785AA
:101F50006E0D7F1DC5010E94D6138B819C81F801F7
:101F600026853785820F931F9C838B8319C0C601FA
:101F70000E940D0B8B819C816E817F816817790790
:101F800018F4C4E6D0E003C0EB01C81BD90BC501AF
:101F90000E940B14C80FD91FC501BE010E94D613A1
:101FA000DF91CF911F910F91FF90EF90DF90CF9035
:101FB000BF90AF909F908F9008959F92AF92BF92E5
:101FC000CF92DF92EF92FF920F931F93CF93DF9305
:101FD0008C017B01EA01FC0171876087538742878E
:101FE00084819581892B09F457C09FB6F894F80134
:101FF0008289938968EE73E00E948F1D5B01CC2477
:10200000DD24B7016C1B7D0B80E090E0A6019501FB
:102010000E94701D24E130E040E050E00E94A31DCA
:10202000C901DA019C01AD01DA01C901807090702B
:102030000097A105B10539F086EE0E9433132FEF0A
:102040003FEF40E050E0F80135872487CE0DDF1DDB
:10205000BE0180E090E0A60195010E94701D24E180
:1020600030E040E050E00E94A31DC901DA019C016C
:10207000AD01DA01C901807090700097A105B1052A
:1020800039F086EE0E9433132FEF3FEF40E050E02F
:10209000F801378726879FBEDF91CF911F910F915F
:1020A000FF90EF90DF90CF90BF90AF909F900895FA
:1020B000EF92FF920F931F937A01209104023091C7
:1020C000050240E050E00E94701D00E010E0A80111
:1020D00097010E94A31DCA01B9011F910F91FF90A2
:1020E000EF900895613023E0720720E0820720E03E
:1020F000920748F423E030E040E050E00E94A31D46
:102100002A95F1F708959B01AC0182E05695479519
:10211000379527958A95D1F7DA01C901203060E01B
:10212000360761E0460760E0560720F08FEF9FEF2B
:10213000A0E0B0E0FC013197F1F7A0E0B0E0281B8F
:10214000390B4A0B5B0B41F70895FC013796E4917C
:10215000EE2321F426E083E693E003C028E08FE637
:1021600093E0422F4150242F332727FD3095220F33
:10217000331F280F391F0EC0F90185919491225009
:1021800030408617970729F4242F332727FD3095F1
:1021900005C0415047FFF0CF2FEF3FEFC901089531
:1021A000FC01CB0124E06130720710F080E094E084
:1021B000AC01009711F441E050E037967491772319
:1021C00021F4E3E6F3E086E003C0EFE6F3E088E025
:1021D000682F6150262F332727FD3095220F331F9C
:1021E0002E0F3F1F09C0F901859194912250304074
:1021F0008417950721F0615067FFF5CF02C0CA012F
:1022000008954F5F5F4FDBCF9C010296FC01A591C3
:10221000B4912A5F3F4FF9018491882319F02D91E1
:102220003C9103C08C91282F30E0C90108959C0196
:102230000B96FC01A591B491235F3F4FF9012491C6
:1022400070E0022E02C0660F771F0A94E2F781E069
:1022500090E002C0880F991F2A95E2F7282F220FDD
:10226000282B9C91822F862320952923822B8C93C7
:1022700008959C010B96FC01A591B491235F3F4FFB
:10228000F901449121E030E0042E02C0220F331FF7
:102290000A94E2F7822F880F822B2C91822390E000
:1022A00002C0959587954A95E2F70895CF93DF93FD
:1022B000AC01FC01C591D4918A819B81AC81BD8127
:1022C0000196A11DB11D8A839B83AC83BD832E81A2
:1022D0003F812115310529F068857985CA01F90109
:1022E0000995DF91CF910895FC01A591B4911A96BB
:1022F000ED91FC911B97309729F01C966D917C9184
:102300001D9709950895CF93DF93AC01FC01C5910A
:10231000D4918C819D81AE81BF810196A11DB11D9B
:102320008C839D83AE83BF8328813981211531053C
:1023300029F06A817B81CA01F9010995DF91CF916A
:1023400008958091B10308959093B5038093B403E9
:1023500008958F929F92AF92BF92CF92DF92EF92A9
:10236000FF920F931F93CF93DF93982E892E5A01DC
:102370006B01C82FD92F8981882341F488811816D1
:1023800014F4888102C0888181958983888187FDC2
:1023900008C000E2E02E01EAF02E07E0002F112D28
:1023A00007C010E9E12E10EDF12E13E0012F112DE1
:1023B0008A8180FF1DC080917603909177030E94EF
:1023C000090C882329F086E793E060E00E94930CD3
:1023D0008981815089838981882339F4B0E8EB2E83
:1023E000B4E8FB2EBEE10B2F112D8A818E7F0FC02A
:1023F00080917603909177030E94090C882329F03D
:1024000086E793E06FEF0E94930C8A8181608A8354
:1024100089EA91E1692D782DA60195010E94C91CD8
:10242000DF91CF911F910F91FF90EF90DF90CF90B0
:10243000BF90AF909F908F9008954F925F926F9250
:102440007F929F92AF92BF92CF92DF92EF92FF92D4
:102450000F931F93CF93DF93DC013B012A01FC0113
:10246000C591D4918E85843039F0893029F08B3034
:1024700019F08F3009F039C0FD017796659174919C
:10248000FB01459154919FB6F89432E0A32EB12CF4
:10249000AA0EBB1EF501C591D49126E0C22ED12C07
:1024A000CA0EDB1EF6018491882319F02881398138
:1024B00003C08881282F30E0FA01E480F58006818E
:1024C0001781F501A591B491F6018491882319F043
:1024D000CD91DC9103C08C91C82FD0E0C217D307F7
:1024E00008F43BC0CB01089634C0FD0145915491DE
:1024F0009FB6F89492E0A92EB12CAA0EBB1EF5014E
:10250000C591D49186E0C82ED12CCA0EDB1EF601EF
:102510008491882319F02881398103C08881282F6C
:1025200030E0FA01E280F38004811581F501C59164
:10253000D491F6018491882321F00990D881C02D8F
:1025400003C08881C82FD0E0C217D30730F0CD0177
:102550004C960E94000B882391F00894E11CF11C1A
:10256000011D111DF501A591B491F60184918823F7
:1025700019F0CD91DC9103C08C91C82FD0E09FBEA3
:10258000F301E082F18202831383F201D183C083DD
:10259000DF91CF911F910F91FF90EF90DF90CF903F
:1025A000BF90AF909F907F906F905F904F900895F5
:1025B000EF92FF920F931F93DF93CF9300D000D041
:1025C00000D0CDB7DEB78091B6039091B703BE01BE
:1025D0006D5F7F4FAE014F5F5F4F0E941D126B8199
:1025E0007C818D819E812091790330917A03409185
:1025F0007B0350917C030E94701D6B837C838D83D1
:102600009E838091B6039091B7030E9438147C0199
:1026100069817A8180E090E02091790330917A039A
:1026200040917B0350917C030E94701D00E010E0FC
:10263000A80197010E94A31D8B819C81AD81BE8161
:10264000280F391F4A1F5B1FB901CA0126960FB612
:10265000F894DEBF0FBECDBFCF91DF911F910F91D8
:10266000FF90EF900895DF92EF92FF920F931F93E8
:10267000D82E8091B103882309F05BC0D092B103BA
:102680008091760390917703892B99F08091B6031E
:102690009091B703892B69F00E94D8129B01AC017D
:1026A00089EA91E161EB73E0EE24FF2487010E9447
:1026B000C91C8091B4039091B5030097D1F10E9499
:1026C000B80C8C012D2D332727FD3095D7FE16C071
:1026D00000D000D00F92EDB7FEB7319681E0ADB7D4
:1026E000BEB711968C9384EA93E092838183882706
:1026F0009927821B930B9483838311C000D000D051
:102700000F92EDB7FEB7319681E0ADB7BEB7119627
:102710008C9385E993E092838183348323830E94A1
:102720003A0D0F900F900F900F900F90C8010E94DC
:10273000B80C1F910F91FF90EF90DF900895CF9309
:10274000DF93EC012296FE01949122978CE2989FF0
:10275000F0011124EE5BFD4FE491EE2309F1CE016F
:1027600003960E940D0BCE010B96FC01A591B4912E
:102770002D96FE0184912D9721E030E002C0220FBA
:10278000331F8A95E2F79C91822F880F822B8095C8
:1027900089238C93FE01A591B4911D921C9203C0D4
:1027A0008DEF0E943313DF91CF910895CF93DF9384
:1027B0009C012E5F3F4FF9018491225030409CE2F2
:1027C000899FA0011124465C5D4F485F5F4FFA016D
:1027D0008491485050408823C1F0C9010696FC01FD
:1027E000C591D491FA013696E491EE2319F07983DC
:1027F00068830EC06F3F710531F028F08EEF0E94A4
:1028000033136FEF70E0688303C08DEF0E943313C2
:10281000DF91CF9108959C012E5F3F4FF901849184
:10282000225030409CE2899FA0011124465C5D4FFC
:10283000485F5F4FFA01849148505040882389F0E7
:10284000C9010696FC01A591B491FA013696E4916E
:10285000EE2319F02D913C9109C08C91282F30E086
:1028600005C08DEF0E9433132FEF30E0C9010895AA
:10287000CF93DF93EC010496FC01A591B4918C9168
:1028800090E087709070892B09F441C0FE01A591FA
:10289000B4911E968C91873039F1883070F4833072
:1028A00019F1843028F48130C9F08230D0F413C09B
:1028B0008530A1F08630A8F41AC08B30C1F08C307E
:1028C00018F48930E1F413C08E30C9F08F3079F0FC
:1028D0008C30E9F414C02FEF3FEF1BC02FEF30E036
:1028E00018C02FEF31E015C02FEF33E012C0FE010A
:1028F0007796859194910E940B149C010AC0CE0199
:102900004F96FC01A591B4912D913C9102C020E01D
:1029100030E02696FE018491882309F43070C901C5
:10292000DF91CF9108953F924F925F926F927F9285
:102930008F929F92AF92BF92CF92DF92EF92FF92CF
:102940000F931F93CF93DF93EC012696FE018491A2
:102950002697882331F4FFEFAF2EB12CC12CD12C58
:1029600006C0EFEFAE2EEFEFBE2EC12CD12C279676
:1029700080E090E0209104023091050240E050E0B8
:102980000E94701D3B014C0101E010E061E0462E09
:10299000512CEE24FF24FE013490332021F463E611
:1029A00073E086E003C06FE673E088E0482F415093
:1029B000242F332727FD3095220F331F260F371F73
:1029C00009C0F901859194912250304080179107F8
:1029D00021F0415047FFF5CF0DC0980140E050E095
:1029E000C401B3010E94A31DA216B306C406D506F6
:1029F00070F42801000F111F0894E11CF11CFBE08A
:102A0000EF16F10451F688EF0E9433138201C801DA
:102A1000DF91CF911F910F91FF90EF90DF90CF90BA
:102A2000BF90AF909F908F907F906F905F904F90EE
:102A30003F9008951F93CF93DF93AC01EB01FC010E
:102A40003496A591B4911FB7F894495F5F4FFA018E
:102A5000849147505040882321F4E3E6F3E086E078
:102A600003C0EFE6F3E088E0682F6150262F33279C
:102A700027FD3095220F331F2E0F3F1F16C0F9017F
:102A800085919491225030408C179D0769F4FA018A
:102A900025913491F901D183C0838C91887F8C93E7
:102AA0008C91862B8C9304C0615067FFE8CF05C0E2
:102AB0001FBFDF91CF911F9108958AEF0E943313BA
:102AC000F7CF7F928F929F92AF92BF92CF92DF9279
:102AD000EF92FF920F931F93CF93DF93EC01FC01D2
:102AE000329605911491FC01C590D4907FB6F8946C
:102AF0000496FC01A591B4918C91887F8C9399E107
:102B0000892E912C8C0E9D1EC4010E940D0BF80184
:102B10001082F60112821382148215826081718103
:102B2000CE010E941A152896FE01E4902F96FF24EC
:102B300000E010E0FE01A590B490679709C0C501C0
:102B4000800F911F08960E94F40AF394005F1F4FB4
:102B5000FE14A8F3CE014C960E94F40AF601868179
:102B60009781892B19F0C4010E94F40A7FBEDF917E
:102B7000CF911F910F91FF90EF90DF90CF90BF907A
:102B8000AF909F908F907F900895DF92EF92FF9289
:102B90000F931F93CF93DF938C01662341F0FC01C9
:102BA000A591B4911E968C91861709F47AC0F8010C
:102BB00039962591349181E090E0062E02C0880F6D
:102BC000991F0A94E2F782239323892B09F466C0A4
:102BD000F801A591B4911E966C93FFED2F3F3F072E
:102BE00011F4D62E13C088E82333380731F4E62FCA
:102BF000F0E0E158FC4FD49009C02333310509F0CF
:102C00004DC0E62FF0E0E157FC4FD490EFEFDE1619
:102C100009F444C0C8010496FC01A591B4918C91BB
:102C2000887F8C93E8012B96EE24FF24E881F981BC
:102C300085919491892B99F0D0FE04C0CE010E9419
:102C4000F40A03C0CE010E940D0B0894E11CF11C94
:102C5000F4E0EF16F10419F0D6942396E7CF085F5D
:102C60001F4FF801F490FA94015F1F4FF801C591CE
:102C7000D491075110400CC08F2D90E024E0880FB4
:102C8000991F2A95E1F78C0F9D1F0E949F13FA94BC
:102C9000F7FEF2CFC8010E94611503C086EF0E94C3
:102CA0003313DF91CF911F910F91FF90EF90DF9041
:102CB00008950F931F93CF93DF93F89400910A0226
:102CC000CAE3D2E010E018C0CE0160E070E040E05E
:102CD00050E00E943A1ACE010E946D19CE0160E0C8
:102CE0000E94C515CE010496FC01A591B4918C916A
:102CF000887F8C931F5FAC96101730F37894DF9128
:102D0000CF911F910F9108956F927F928F929F9212
:102D1000AF92BF92CF92DF92EF92FF920F931F93E9
:102D2000CF93DF937C015B014A01390122E030E05F
:102D3000E20EF31EF70184912EEF3FEFE20EF31E39
:102D40009CE2899FE0011124C65CDD4F2896FE01BC
:102D500084912897882369F1F701C590D490611573
:102D6000710541F0F60180819181892B19F08BEF7B
:102D70000E943313CE01FE01A591B4916D917C9117
:102D80000E941A1587010D5F1F4FC8010E940D0B8D
:102D9000C701B4010E94D613F601B182A0827382EA
:102DA0006282C70108960E94F40AC8010E94F40AD0
:102DB00003C08DEF0E943313DF91CF911F910F91CC
:102DC000FF90EF90DF90CF90BF90AF909F908F904B
:102DD0007F906F9008952F923F924F925F926F92E3
:102DE0007F928F929F92AF92BF92CF92DF92EF929B
:102DF000FF920F931F93DF93CF93CDB7DEB72E973C
:102E00000FB6F894DEBF0FBECDBF1092B70310927D
:102E1000B603B0900A02BA94809104029091050220
:102E20009C0140E050E02D833E834F835887CA01C8
:102E3000B9012CE030E040E050E00E94701D2B0111
:102E40003C018CE23B2D3802100111244AE352E090
:102E5000240E351E1C861B861A8619868824992402
:102E600051C0C1010496FC01A591B4918C9190E0F0
:102E700087709070892B09F040C0F8C028E030E0DE
:102E8000220E331EF101849128EF3FEF220E331EF4
:102E9000823098F14B855C854F3F510569F060F0B9
:102EA00086E090E0280E391EF10184912AEF3FEF71
:102EB000220E331E882309F1C1016CE070E00E94EC
:102EC00093146C019C0140E050E0C301B2010E94E8
:102ED000A31D79018A018114910451F04B855C8511
:102EE000CA01A0E0B0E08E159F05A007B10728F445
:102EF000FC86EB86DA86C9864101BA9484ED9FEFA1
:102F0000280E391EB7FEADCF8114910409F4A5C077
:102F1000A6E0B0E08A0E9B1EF40184912AEF3FEFF9
:102F2000820E931E882331F45FEFA52EB12CC12CA5
:102F3000D12C06C04FEFA42E4FEFB42EC12CD12CB4
:102F4000A985BA85CD01A0E0B0E089839A83AB83DF
:102F5000BC836D817E818F81988529813A814B81E7
:102F60005C810E94A31D79018A010894E11CF11C77
:102F7000011D111D3CE0632E712CEB85FC851F01AA
:102F800044245524D201C1018E0D9F1DA01FB11FE5
:102F90008A159B05AC05BD0580F593012F5F3F4F5A
:102FA0003E872D87C401B9010E94931449855A8533
:102FB0008417950711F5AD85BE85BD0180E090E0D1
:102FC0002D813E814F8158850E94701D29813A8153
:102FD0004B815C810E94A31DC901DA01A816B906C4
:102FE000CA06DB0650F0281639064A065B0628F4A6
:102FF0003C872B876D847E84C0CF9092B7038092EC
:10300000B603B30180E090E028EE33E040E050E00A
:103010000E94701D6093790370937A0380937B0301
:1030200090937C03C40169857A850E941A1580916A
:10303000B6039091B70364E00E94C515E091B60312
:10304000F091B70377968591949169E37AE14B8586
:103050005C8520E030E00E9484168091B1038823D3
:1030600061F01092B1030E94331307C0F101399649
:103070008591949184FD02CF40CF2E960FB6F8949F
:10308000DEBF0FBECDBFCF91DF911F910F91FF909B
:10309000EF90DF90CF90BF90AF909F908F907F90F8
:1030A0006F905F904F903F902F9008958F929F92D6
:1030B000AF92BF92CF92DF92EF92FF920F931F9346
:1030C000CF93DF936B017C0149015A01E8010E9413
:1030D000D8126C197D098E099F0986169706A806D5
:1030E000B90650F4681979098A099B0968837983BC
:1030F0008A839B838FEF09C0861A970AA80AB90AA8
:1031000088829982AA82BB8280E0DF91CF911F9151
:103110000F91FF90EF90DF90CF90BF90AF909F9076
:103120008F900895AF92BF92CF92DF92EF92FF926D
:103130000F931F935B016C010E94D8127B018C01DD
:1031400001C000000E94D8126E197F09800B910BFC
:103150006A157B058C059D05A0F31F910F91FF90CB
:10316000EF90DF90CF90BF90AF90089528EE33E0BE
:1031700040E050E00E94701D0E9492180895EF9266
:10318000FF920F931F937B018C018091B603909166
:10319000B703892B29F0C801B7010E94B6180CC0EB
:1031A000209104023091050240E050E0C801B701CF
:1031B0000E94701D0E9472101F910F91FF90EF905E
:1031C0000895EF92FF920F931F937B018C018091E2
:1031D000B6039091B703892B59F085E6E816F10400
:1031E0000105110528F0C801B7010E94921814C00A
:1031F000209104023091050240E050E0C801B7017F
:103200000E94701D28EE33E040E050E00E94A31DB4
:10321000CA01B9010E9472101F910F91FF90EF90A7
:103220000895AF92BF92CF92DF92EF92FF920F93E9
:103230001F937B018C0159016A010E94D8126E19FB
:103240007F09800B910B6A157B058C059D0510F499
:1032500080E001C08FEF1F910F91FF90EF90DF9002
:10326000CF90BF90AF9008950F931F93DF93CF93AC
:1032700000D000D000D0CDB7DEB78C01BE016D5FAD
:103280007F4FAE014F5F5F4F0E941D12C8010E9429
:103290003814A0E0B0E00196A11DB11D2B813C8146
:1032A0004D815E81BC01CD010E94701D9B01AC016E
:1032B00089819A81A0E0B0E0280F391F4A1F5B1F67
:1032C000B901CA0126960FB6F894DEBF0FBECDBF76
:1032D000CF91DF911F910F910895EF92FF920F937D
:1032E0001F938C01FC01E590F49081960E940D0BD8
:1032F000C80184960E94F40AF701138612861F9172
:103300000F91FF90EF900895AF92BF92CF92DF920E
:10331000EF92FF920F931F93CF93DF938C017B016A
:103320006A01B22EFC01C591D4918A859B85892BB7
:1033300019F08AEE0E943313AFB6F894FB86EA8642
:10334000DD86CC86C8018796BB2019F00E94F40A5E
:1033500002C00E940D0BC80184960E94F40AC801A5
:1033600081960E94F40AAFBEDF91CF911F910F9119
:10337000FF90EF90DF90CF90BF90AF9008959C01A9
:10338000FC01A591B4918D919C91892B11F52E5F33
:103390003F4FF9019491225030408CE2989FB00148
:1033A0001124665C7D4FAB01495E5F4FFA01859148
:1033B00094912817390779F4FB01A591B4911E96D1
:1033C0008C91843031F0893021F08B3011F08F30C6
:1033D00011F48FEF089580E00895BF92CF92DF92AD
:1033E000EF92FF920F931F93CF93DF936C01B090F6
:1033F0000A022AE332E090E0C0E0D0E02DC0285F6E
:103400003F4FF901E49028503040F90177962A5F48
:103410003F4F80E0A0E0B0E005911491F901F490F5
:103420002650304014C0B8016A0F7B1FFB013E9646
:10343000459154914115510541F04C155D0529F414
:10344000FF2011F0EB010AC0EB018F5F50968E1543
:1034500050F39F5F245D3F4F9B1588F2CE01DF91B3
:10346000CF911F910F91FF90EF90DF90CF90BF9081
:1034700008950895DF92EF92FF920F931F93CF93D9
:10348000DF93EC018B017A01DFB6F89461157105C9
:1034900061F0FC01A591B49116968D919C911797BE
:1034A000892B19F08CEF0E943313CE01FE01A591F8
:1034B000B49117961C930E9316971996FC92EE9260
:1034C00018974996012B19F00E94F40A02C00E9435
:1034D0000D0BDFBEDF91CF911F910F91FF90EF9009
:1034E000DF900895BF92CF92DF92EF92FF920F93F9
:1034F0001F93CF93DF937A018B01EC01BFB6F89451
:103500004F3F8FEF58078FEF68078FEF780721F451
:10351000A1E0CA2ED12C24C0CB01BA01F3E0660F82
:10352000771F881F991FFA95D1F7209100023091DB
:1035300001024091020250910302620F731F841F27
:10354000951FA8019701E4E0220F331F441F551F68
:10355000EA95D1F70E94A31D69010894C108D1081A
:103560009CA19923C9F1E88DF98D808190958923DB
:1035700080838FEFE8168FEFF8068FEF08078FEF45
:10358000180719F421E030E01DC032E0EE0CFF1CFA
:10359000001F111F3A95D1F760910002709101024E
:1035A00080910202909103026E0D7F1D801F911F7A
:1035B000EE0CFF1C001F111FA80197010E94A31D04
:1035C000215030402C153D0538F0E88DF98D808173
:1035D0009CA1892B80836901EC8DFD8DC082EE8DCD
:1035E000FF8DD082BFBEDF91CF911F910F91FF90D1
:1035F000EF90DF90CF90BF900895DC015A96ED9147
:10360000FC915B9780818772808394969C919497BC
:10361000992341F05896ED91FC91599780819095AE
:10362000892380830895DC0153968C9153978823D6
:1036300071F05A96ED91FC915B978081877B808336
:103640005A96ED91FC915B97808180698083089503
:10365000DC019096ED91FC91919760830895DC01D7
:1036600053968C915397882371F05A96ED91FC9163
:103670005B9780818F7680835A96ED91FC915B9762
:103680008081886480830895DC015A96ED91FC91D5
:103690005B97662319F080818F7702C080818068F4
:1036A00080830895DC015896ED91FC9159978081B3
:1036B00087FD03C02FEF3FEF07C09096ED91FC917F
:1036C00091978081282F30E0C90108950F931F93AF
:1036D0008C010E941409D80153968C9153975A96E5
:1036E000ED91FC915B97882311F080E901C088ED92
:1036F00080831F910F9108954F925F926F927F92F6
:103700008F929F92AF92BF92CF92DF92EF92FF92F1
:103710000F931F932B015A0139017801E21AF30A22
:1037200000E010E09C01261B370B442737FD409535
:10373000542FC801B7010E94701DA418B508CC24ED
:10374000B7FCC094DC2CA60195010E94C51D8824FD
:103750009924260D371D481D591DC9011F910F9130
:10376000FF90EF90DF90CF90BF90AF909F908F90A1
:103770007F906F905F904F9008952F923F924F925D
:103780005F926F927F928F929F92AF92BF92CF92F1
:10379000DF92EF92FF920F931F93DF93CF93CDB7FA
:1037A000DEB729970FB6F894DEBF0FBECDBF99875D
:1037B00088870E949F132FB72F8378948FEF809371
:1037C000BB031092BA0380910802A82FB0E01197B2
:1037D000BE83AD83EDE0F0E0AE9F5001AF9FB00C33
:1037E000BE9FB00C11242DE733E0A20EB31E22249D
:1037F000332421015AC0D5018C91882309F44CC08F
:1038000019966D907D908D909C901C971596CD90FB
:10381000DD90ED90FC901897C401B301A7019601CB
:103820008E010F5F1F4F0E945618882319F1D50192
:103830001196ED91FC91129713968D919C9114978E
:103840001C922091B8033091B9032150304030933D
:10385000B9032093B803C60CD71CE81CF91C0981D6
:103860001A812B813C81B701A6010995BFEFB09366
:10387000BA0312C0211431044104510449F0898172
:103880009A81AB81BC8182159305A405B50520F40E
:1038900029803A804B805C80ED81FE813197FE83E8
:1038A000ED8323EF3FEFA20EB31E8D819E818F5FCC
:1038B0009F4F09F0A0CF8091BA03882309F081CFF0
:1038C0001092BB038091B8039091B90318161906A2
:1038D0000CF044C0F090B603E090B703EF2DFE2D3E
:1038E00005911491209106023091070240E050E0CA
:1038F000C201B1010E94701DF8012081318140E0B8
:1039000050E00E94A31D59016A018F2D9E2D0E9437
:1039100038147C0100E010E0AE14BF04C006D106EC
:1039200010F4860175018091B6039091B7030E944F
:1039300038148C018091B6039091B7030E94041152
:103940008E0D9F1DB8010E948F1DAC018885998541
:103950006DEB7BE120E030E00E948416FF81FFBF29
:1039600029960FB6F894DEBF0FBECDBFCF91DF9181
:103970001F910F91FF90EF90DF90CF90BF90AF908D
:103980009F908F907F906F905F904F903F902F907F
:1039900008952F923F924F925F926F927F928F92F3
:1039A0009F92AF92BF92CF92DF92EF92FF920F93CE
:1039B0001F93DF93CF9300D000D0CDB7DEB71C01AB
:1039C0002B0149015A016701780188EEC81683E08E
:1039D000D80680E0E80680E0F80638F48091BB0362
:1039E0008823C1F18FEF8093BA036FB7F894809169
:1039F0000802482F50E0ADE7B3E020E030E020C0FF
:103A0000FD018C911D968823C9F48FEF808332824B
:103A100021825482438281869286A386B486C5829F
:103A2000D682E782F0868091B8039091B90301961F
:103A30009093B9038093B8038FEF06C02F5F3F4F79
:103A400024173507ECF280E06FBF882359F58FEF1C
:103A50000E9433133E010894611C711CC501B4011E
:103A6000A701960183010E9456188823B9F3C80C58
:103A7000D91CEA1CFB1C09811A812B813C81C201E3
:103A8000B701A601F101099511C0E091B603F091CB
:103A9000B703779685919491409660E070E00E941C
:103AA000BD1B04C08091BB03882379F30F900F9056
:103AB0000F900F90CF91DF911F910F91FF90EF909A
:103AC000DF90CF90BF90AF909F908F907F906F903E
:103AD0005F904F903F902F900895F8940C94E01DC4
:103AE000629FD001739FF001829FE00DF11D649FE2
:103AF000E00DF11D929FF00D839FF00D749FF00D6E
:103B0000659FF00D9927729FB00DE11DF91F639F0E
:103B1000B00DE11DF91FBD01CF0111240895AA1BAD
:103B2000BB1B51E107C0AA1FBB1FA617B70710F0A8
:103B3000A61BB70B881F991F5A95A9F780959095DA
:103B4000BC01CD010895A1E21A2EAA1BBB1BFD01E9
:103B50000DC0AA1FBB1FEE1FFF1FA217B307E4076C
:103B6000F50720F0A21BB30BE40BF50B661F771FC4
:103B7000881F991F1A9469F76095709580959095A4
:103B80009B01AC01BD01CF01089597FB092E0526CD
:103B90000ED057FD04D0D7DF0AD0001C38F4509562
:103BA0004095309521953F4F4F4F5F4F0895F6F761
:103BB00090958095709561957F4F8F4F9F4F089599
:043BC000F894FFCFA7
:103BC4000024F400803E10000407060000000000FA
:103BD4000000B803FFFF050108018806790600000C
:103BE400000000C800C900CC00CD00CE00000002D7
:103BF4006E0308000000000030020000000000B85E
:103C040003FFFF1A011D010107F206000000000076
:103C1400D000D100D400D500D60000000210170156
:103C24000000800200002901DC05F401000000000E
:103C3400000000000000800000002601DC05F40103
:103C44000000000000000000440300000002000027
:043C540000B70C00A9
:00000001FF
