:100000000C94A0000C94BD000C94BD000C94BD0099
:100010000C94BD000C94BD000C94BD000C94BD006C
:100020000C94BD000C94BD000C94BD000C94BD005C
:100030000C94BD000C9430140C945D140C944F126D
:100040000C94A9130C947D0D0C94D6130C940314EA
:100050000C940F120C944F130C947C130C94BC1141
:100060000C94BD000C9426180C94BD000C948319BC
:100070000C94BD000C943D1C0C94BD000C948A148F
:100080000C94B7140C94E4140C9411150C948F1266
:100090000C9401180C94BD000C945E190C94BD00D6
:1000A0000C94BD000C943E150C946B150C94981593
:1000B0000C94C5150C94CF120C94F2150C941F16C9
:1000C0000C944C160C9479160C940F130C94DC17AA
:1000D0000C94BD000C9439190C94B7170C94BD0006
:1000E0000C941419496E697469616C697A61746958
:1000F0006F6E20436F6D706C657465200D0A002E65
:1001000000000001000800400000010004000001A0
:10011000000800200040008000000100044241442B
:100120005F766563742063616C6C656421003031B7
:10013000323334353637383941424344454600007E
:1001400011241FBECFEFD1E2DEBFCDBF13E0A0E090
:10015000B2E0E8E3FEE402C005900D92A03AB107D8
:10016000D9F71CE0A0EAB3E001C01D92AD3FB10792
:10017000E1F70E948F040C941A270C94A61689307C
:1001800049F480918000826080938000809180009B
:100190008E7F0EC08A3021F480918000826003C07F
:1001A000809180008D7F80938000809180008160AD
:1001B0008093800010928B0010928A0008958930FD
:1001C00049F48091B00082608093B0008091B000CB
:1001D0008E7F0EC08A3021F48091B000826003C00F
:1001E0008091B0008D7F8093B0008091B0008160DD
:1001F0008093B0001092B4000895893049F4809142
:100200009000826080939000809190008E7F0EC05D
:100210008A3021F480919000826003C08091900028
:100220008D7F8093900080919000816080939000FA
:1002300010929900109298000895893049F48091A5
:100240009100826080939100809191008E7F0EC01A
:100250008A3021F480919100826003C080919100E6
:100260008D7F8093910080919100816080939100B7
:1002700010929B0010929A000895893049F4809161
:100280009200826080939200809192008E7F0EC0D7
:100290008A3021F480919200826003C080919200A4
:1002A0008D7F809392008091920081608093920074
:1002B00010929D0010929C000895893049F480911D
:1002C000A00082608093A0008091A0008E7F0EC06D
:1002D0008A3021F48091A000826003C08091A00048
:1002E0008D7F8093A0008091A00081608093A0000A
:1002F0001092A9001092A8000895893049F48091C5
:10030000A10082608093A1008091A1008E7F0EC029
:100310008A3021F48091A100826003C08091A10005
:100320008D7F8093A1008091A10081608093A100C6
:100330001092AB001092AA000895893049F4809180
:10034000A00082608093A0008091A0008E7F0EC0EC
:100350008A3021F48091A000826003C08091A000C7
:100360008D7F8093A0008091A00081608093A00089
:100370001092AD001092AC000895E0E8F0E020810A
:100380002E7F2083208122602083E1E8F0E020811D
:1003900028602083208120612083909387008093B0
:1003A0008600109289001092880010928B001092A3
:1003B0008A0010928D0010928C000895E0E9F0E020
:1003C00020812E7F2083208122602083E1E9F0E0DC
:1003D00020812860208320812061208390939700D2
:1003E00080939600109299001092980010929B00B2
:1003F00010929A0010929D0010929C000895E0EADD
:10040000F0E020812E7F2083208122602083E1EA9A
:10041000F0E0208128602083208120612083909358
:10042000A7008093A6001092A9001092A800109235
:10043000AB001092AA001092AD001092AC0008958B
:10044000E0E8F0E080818062808380818F7E80831D
:100450000895E0EBF0E080818062808380818F7E70
:1004600080830895E0E9F0E0808180688083808166
:100470008F7B80830895E0E9F0E080818062808353
:1004800080818F7E80830895E0E9F0E0808188603C
:10049000808380818B7F80830895E0EAF0E0808113
:1004A0008068808380818F7B80830895E0EAF0E01C
:1004B00080818062808380818F7E80830895E0EADE
:1004C000F0E080818860808380818B7F80830895C5
:1004D000E0E8F0E080818F7D808380818F7E808363
:1004E0000895E0EBF0E080818F7D808380818F7EB6
:1004F00080830895E0E9F0E080818F7780838081B8
:100500008F7B80830895E0E9F0E080818F7D808398
:1005100080818F7E80830895E0E9F0E08081877F8D
:10052000808380818B7F80830895E0EAF0E0808182
:100530008F77808380818F7B80830895E0EAF0E06D
:1005400080818F7D808380818F7E80830895E0EA23
:10055000F0E08081877F808380818B7F8083089516
:10056000E0E8F0E080818D7F808380818E7F8083D2
:1005700080818F7D808380818F7E80830895E0EBF2
:10058000F0E080818D7F808380818E7F8083808179
:100590008F7D808380818F7E80830895E0E9F0E005
:1005A00080818D7F808380818E7F808380818F7723
:1005B000808380818F7B808380818F7D8083808119
:1005C0008F7E80838081877F808380818B7F808303
:1005D0000895E0EAF0E080818D7F808380818E7FC6
:1005E000808380818F77808380818F7B80838081EF
:1005F0008F7D808380818F7E80838081877F8083D1
:1006000080818B7F8083089590938B0080938A00F4
:1006100008958093B4000895909399008093980072
:10062000089590939B0080939A00089590939D0065
:1006300080939C0008959093A9008093A80008954A
:100640009093AB008093AA0008959093AD0080939F
:10065000AC00089510BA11BA109207011092080167
:100660009FEF91B980E484B997B9589A599A83EF6A
:100670008AB98EEF8DB9A59A9D98809301018093D8
:100680000401089508952E9A08952E98089522B38E
:1006900030E085E0369527958A95E1F720953095ED
:1006A00021703070C901089597FD10C025E030E039
:1006B00040E050E00E94C826DA01C901880F991F66
:1006C00080509E4FFC012081318117C025E030E031
:1006D00040E050E00E94C826DA01C901885B9F4FC4
:1006E000AF4FBF4F880F991F80509E4FFC018081F4
:1006F000918122273327281B390BC90108956A5598
:1007000070408040904097FD10C025E030E040E010
:1007100050E00E94C826DA01C901880F991F805055
:100720009E4FFC012081318117C025E030E040E080
:1007300050E00E94C826DA01C901885B9F4FAF4F85
:10074000BF4F880F991F80509E4FFC01808191817F
:1007500022273327281B390BC9010895CF92DF9236
:10076000EF92FF920F931F936B017C018AE5C816ED
:10077000D104E104F104A1F186EAC8168FEFD8068E
:100780008FEFE8068FEFF80659F18EE0C81681E08A
:10079000D80680E0E80680E0F80611F182EFC8167E
:1007A0008EEFD8068FEFE8068FEFF806C9F0C70185
:1007B000B6010E947F038C01C701B6010E94540359
:1007C000BC01C8010E949326CB019B0173E0220F5C
:1007D000331F7A95E1F7880F991F280F391F02C040
:1007E00020E030E0C9011F910F91FF90EF90DF9062
:1007F000CF90089588E00E94DF008AE00E949D016A
:10080000E0EBF0E080818062808380818F7E808356
:10081000E0EAF0E080818860808380818B7F808344
:100820001092B4001092AD001092AC0008950F9396
:100830001F93CF93DF930E94081B80E040E056E9AE
:1008400060E070E00E94E21681E040E052EC61E07E
:1008500070E00E94E21682E040E056E960E070E05D
:100860000E94E21683E040E056E960E070E00E94FA
:10087000E2168BE597E10E944C1C0E942A032E98F9
:1008800085E00E94EE1084E00E940E1183E00E9439
:100890001E1183E00E94301183E00E9442110E94E9
:1008A000C11B85E00E94E61B81E00E94ED1B10E069
:1008B00001E0CFEFD0E0812F0E94361C00D00F92D4
:1008C000EDB7FEB70183D383C2830E94701E1F5F02
:1008D0000F900F900F90103171F72E9A00D00F9259
:1008E000EDB7FEB7018384EE90E0938382830E948C
:1008F000701E0F900F900F900E94A4100E94AE10D7
:100900000E94BB100E94C6100E94D3100E94E010EB
:100910000E94FA03DF91CF911F910F9108950E94D9
:1009200017040E94740CFFCFFC019C012D5F3F4F08
:10093000328321838FEF9FEF9483838336832583D4
:100940003087278310820895FC0111861086089550
:10095000CF93DF93AC01DB01EC0129813A81F901EE
:100960008281938113969C938E93129789819A81A9
:1009700015969C938E9314970280F381E02D7583D6
:100980006483E9017B836A83FA0172836183199628
:100990005C934E93189780818F5F8083DF91CF9116
:1009A0000895CF93DF939C01EB01488159818FEF2C
:1009B0004F3F580721F4F901A781B08510C0D90134
:1009C000139604C012960D90BC91A02D1296ED9135
:1009D000FC911397808191814817590798F71296D7
:1009E000ED91FC911397FB83EA83D583C483BD8388
:1009F000AC831396DC93CE93129739872887F9013D
:100A000080818F5F8083DF91CF910895CF93DF93B3
:100A1000DC011296ED91FC91139714968D919C91A7
:100A20001597958384831496CD91DC911597FB835C
:100A3000EA831896ED91FC911997818192818A172A
:100A40009B0711F4D283C18319961C921E921897AA
:100A5000808181508083DF91CF910895FC010FB692
:100A6000F8940F92828D0F900FBE0895FC01828D35
:100A70000895FC01828D90E0882309F491E0892F8C
:100A80000895FC01928D20E0838D981709F421E0F0
:100A9000822F08950F931F938C01FC018081918117
:100AA0000E94A30FC8010E94A30F1F910F910895E8
:100AB0000F931F93CF93DF93EC01FB018A018A8D83
:100AC000882381F14881598141155105A9F08C8D08
:100AD0002E813F81280F311D3F832E838A819B8188
:100AE0002817390710F05F834E834C8D6E817F810C
:100AF000CF0150E00E9460268A8D81508A8F8D8DB3
:100B00008F3F69F48885882361F0CE0108960E94A2
:100B1000B808882331F081E0F801808303C08F5F3B
:100B20008D8F81E0DF91CF911F910F910895CF9329
:100B3000DF93EC01842F4C8D4423A1F18823B1F481
:100B40008C819D8150E00E9460268C8D2C813D819E
:100B5000280F311D3D832C838A819B8128173907FB
:100B600008F1888199819D838C831CC08E819F812F
:100B700050E00E9460268C8D90E044275527481B4A
:100B8000590B8E819F81840F951F9F838E832881AF
:100B900039818217930730F48A819B81840F951FD6
:100BA0009F838E838A8D8F5F8A8FDF91CF91089587
:100BB0000F931F93CF93DF93EC018A019A8D8B8D56
:100BC000981710F080E017C0CE01422F0E949705C1
:100BD0008E8D8F3F69F48989882361F0CE0141961B
:100BE0000E94B808882331F081E0F801808303C0B7
:100BF0008F5F8E8F81E0DF91CF911F910F910895CC
:100C00000F931F93CF93DF93EC010FB6F8940F92DD
:100C10008C010F5E1F4F0DC08989882369F0C801C0
:100C20000E94B808882311F00E94B4088E8D81506C
:100C30008E8F8E8D181684F38FEF8E8F0F900FBED0
:100C40000FB6F8940F928E01085F1F4F0DC0888574
:100C5000882369F0C8010E94B808882311F00E9417
:100C6000B4088D8D81508D8F8D8D181684F38FEF84
:100C70008D8F0F900FBEDF91CF911F910F9108952F
:100C80007F928F929F92AF92BF92CF92DF92EF921C
:100C9000FF920F931F93DF93CF9300D000D00F925A
:100CA000CDB7DEB78C01962E872E5D834C83722ED6
:100CB00091E1C92ED12CC00ED11E20E07E010894F6
:100CC000E11CF11C84E0A82EB12CAC0EBD1E01C0AD
:100CD00021E00FB6F8940F92F801828D882309F471
:100CE0003EC0E680F7804081518141155105B1F049
:100CF000848D9701280F311D37832683828193814C
:100D00002817390710F057834683F801448D668110
:100D10007781892D982D50E00E946026772071F40C
:100D2000F801828D8150828F80858823A1F0C801CF
:100D300008960E94B808813071F40BC0F801F78260
:100D4000E6828189882339F0C6010E94B808882389
:100D500011F00E94800D0F900FBE81E04AC08C817F
:100D60009D81892B19F40F900FBE42C0222319F4E4
:100D7000C7010E946F080F900FBE0E9413080FB6A4
:100D8000F8940F92F801858D8F3F09F4158EF801C4
:100D9000868D8F3F09F4168E0F900FBEC701B501E7
:100DA0000E947A088823F9F40FB6F8940F92F8019C
:100DB000828D0F900FBE882381F46C817D81C601E6
:100DC0000E947109C8010E9400060E94AA09882396
:100DD00009F07ECF0E94800D7BCFC8010E940006E3
:100DE0000E94AA0975CFC8010E9400060E94AA09A4
:100DF00080E00F900F900F900F900F90CF91DF91A8
:100E00001F910F91FF90EF90DF90CF90BF90AF9028
:100E10009F908F907F9008957F928F929F92AF9234
:100E2000BF92CF92DF92EF92FF920F931F93DF93C7
:100E3000CF9300D000D00F92CDB7DEB78C016B01FD
:100E40005D834C83722E48E0E42EF12CE80EF91EEF
:100E500020E05E010894A11CB11C34E0832E912C8B
:100E60008C0E9D1E01C021E00FB6F8940F92F80180
:100E7000928D838D9817A8F4C801B601472D0E9462
:100E80009705F8018189882341F0C80141960E94A5
:100E9000B808813011F40E94800D0F900FBE81E0E0
:100EA0004CC08C819D81892B19F40F900FBE44C0DA
:100EB000222319F4C5010E946F080F900FBE0E94F3
:100EC00013080FB6F8940F92F801858D8F3F09F43F
:100ED000158EF801868D8F3F09F4168E0F900FBE88
:100EE000C501B4010E947A08882309F50FB6F89469
:100EF0000F92F801928D0F900FBEF801838D981715
:100F000081F46C817D81C7010E947109C8010E9432
:100F100000060E94AA09882309F0A5CF0E94800D2F
:100F2000A2CFC8010E9400060E94AA099CCFC80156
:100F30000E9400060E94AA0980E00F900F900F9077
:100F40000F900F90CF91DF911F910F91FF90EF9035
:100F5000DF90CF90BF90AF909F908F907F9008953B
:100F60008F929F92AF92BF92CF92DF92EF92FF92B9
:100F70000F931F93CF93DF93982E862E882309F427
:100F800042C08FE190E00E94B30F8C01EC0100970A
:100F9000E1F1C92CDD24A82CBB24AC9C7001AD9CD4
:100FA000F00CBC9CF00C1124C70101960E94B30FF9
:100FB0009C0199838883009719F1E80EF91EFB8242
:100FC000EA821A8E9D838C830894C108D108CA9C3A
:100FD000C001CB9C900DDA9C900D1124280F391F75
:100FE0003F832E839B8E8C8E8FEF8D8F8E8FC801CB
:100FF00008960E949404C80141960E94940405C07A
:10100000C8010E94A30FC0E0D0E0CE01DF91CF91D4
:101010001F910F91FF90EF90DF90CF90BF90AF9016
:101020009F908F9008958091A6038F5F8093A60371
:1010300008950FB6F8940F922091A4033091A50360
:101040000F900FBEC90108952091A4033091A5030C
:10105000C90108958091A90308958091A60388236A
:1010600051F081E08093A20308958091A7038150FD
:101070008093A70301C099E0E091A703E99FF001E5
:101080001124E255FC4F8081882379F39091A703C6
:1010900089E0989FD0011124A255BC4F1196ED9183
:1010A000FC9112970280F381E02D1296FC93EE934F
:1010B0001197CD010396E817F90731F482819381E6
:1010C00012969C938E9311971196ED91FC91129725
:1010D000868197819093A1038093A0030895FC01DA
:1010E0008091A30380838091A4039091A5039283B0
:1010F00081830895FC01DB010FB6F8940F92909163
:10110000A3038081981749F02091A4033091A5038F
:10111000818192812817390718F58091A403909155
:10112000A503218132814D915C911197821B930B14
:1011300084179507A8F48091A4039091A503281B18
:10114000390B240F351F2D933C938091A30380838B
:101150008091A4039091A5039283818380E001C0D4
:1011600081E00F900FBE089581E08093A20308955F
:101170000F931F93CF93DF93FC018081882319F491
:10118000C0E0D0E005C00580F681E02DC681D781A2
:101190008E01045F1F4FC8010E9406058091A603BF
:1011A0008823A1F48E010E5F1F4FC8010E9406051F
:1011B0009E898091A703891710F49093A70389E073
:1011C000989FC001112482559C4F02C088EE93E085
:1011D000B8010E94A804E091A003F091A10320E0CF
:1011E0009E898689981708F021E0822FDF91CF91A0
:1011F0001F910F910895FF920F931F93CF93DF9349
:101200008091A603882309F061C08091A403909186
:10121000A50301969093A5038093A4038091A40352
:101220009091A503892BE9F58091E4039091E50362
:101230002091E6033091E7033093E5032093E40324
:101240009093E7038093E6038091A3038F5F8093DD
:10125000A30327C02091A4033091A5038A819B8119
:1012600028173907C0F18E010E5F1F4FC8010E9479
:1012700006058C899D89892B21F0CE010C960E9450
:1012800006059E898091A703891710F49093A70300
:101290009F9DC001112482559C4FB8010E94A80453
:1012A00002C089E0F82EE091E403F091E50380812B
:1012B000882389F0E091E403F091E5030580F6814D
:1012C000E02DC681D781209729F605C08091A8031B
:1012D0008F5F8093A803DF91CF911F910F91FF90B3
:1012E00008950F931F938B016091A0037091A10348
:1012F000645F7F4F0E94D1048091A0039091A1036D
:1013000002960E9406058091A4039091A503800F88
:10131000911FE091A003F091A10393838283209118
:10132000A4033091A5038217930728F48091E60364
:101330009091E70304C08091E4039091E5036091EC
:10134000A0037091A1036E5F7F4F0E94D1041F9193
:101350000F910895CF92DF92FF920F931F93DF9327
:10136000CF930F92CDB7DEB70FB6F8940F9280915E
:10137000A60381508093A6038091A603882309F0D9
:101380005BC08091A903882309F456C0198299E0B3
:10139000F92E27C0C6010C960E94060586010E5F35
:1013A0001F4FC8010E940605D60156969C91809158
:1013B000A703891710F49093A7039F9DC0011124E0
:1013C00082559C4FB8010E94A804E091A003F091BF
:1013D000A103D60156969C918689981710F0B1E02A
:1013E000B9838091E803882349F0E091ED03F091FF
:1013F000EE03C680D780C114D10461F68091A803A2
:10140000882341F40CC00E94FB088091A8038150FE
:101410008093A8038091A8038823A9F707C0E981D6
:10142000E13021F08091A203813031F41092A203C7
:101430000E94800D81E001C080E00F900FBE0F90F0
:10144000CF91DF911F910F91FF90DF90CF90089582
:101450000F931F939C010097A1F18091A6038F5FCA
:101460008093A6030091A4031091A503020F131FFC
:101470008091A0039091A10302960E940605E0913D
:10148000A003F091A103138302838091A4039091A0
:10149000A5030817190728F48091E6039091E70344
:1014A00004C08091E4039091E5036091A0037091E2
:1014B000A1036E5F7F4F0E94D1040E94AA09882376
:1014C00011F40E94800D1F910F910895CF93DF9327
:1014D000FC01EB018091A6038F5F8093A60320811E
:1014E0003181C20FD31F8091A4039091A50382176D
:1014F000930728F4C217D30728F020E00CC0C217C6
:10150000D30740F08091A4039091A50320E08C17AD
:101510009D0708F421E0D183C083222329F1809123
:10152000A0039091A10302960E940605E091A003FA
:10153000F091A103D383C2838091A4039091A5036A
:10154000C817D90728F48091E6039091E70304C0F7
:101550008091E4039091E5036091A0037091A10351
:101560006E5F7F4F0E94D1040E94AA09882311F464
:101570000E94800DDF91CF910895EF92FF920F931B
:101580001F93CF93DF938C010FB6F8940F92809145
:10159000A0039091A1030817190719F400E010E0C7
:1015A00003C00115110529F4C091A003D091A10336
:1015B00001C0E80122E0E22EF12CEC0EFD1EC70175
:1015C0000E9406058C899D89892B21F0CE010C96FD
:1015D0000E94060581EF93E0B7010E94A804809164
:1015E000AB038F5F8093AB038091AC038F5F8093DD
:1015F000AC030F900FBE8091AA03882321F0012B2A
:1016000011F40E94800DDF91CF911F910F91FF90F7
:10161000EF900895F8941092AA030E94210D089566
:101620001F93CF93DF938091AB03882391F1809137
:10163000A6038F5F8093A6031091F1030E94AA096D
:10164000112339F10FB6F8940F928091F10388239A
:1016500019F4C0E0D0E006C0E091F603F091F70382
:10166000C681D781CE0102960E9406058091A9030A
:1016700081508093A9038091AB0381508093AB0389
:101680000F900FBE8F89988D0E94A30FCE010E94EC
:10169000A30F8091AE03823030F20E94800DC3CF41
:1016A0002F923F925F926F927F928F929F92AF9212
:1016B000BF92CF92DF92EF92FF920F931F93DF932F
:1016C000CF9300D000D0CDB7DEB79A8389834B018A
:1016D0005A011901502E370181E290E00E94B30FA8
:1016E0008B839C838B819C81892B89F0C114D104CD
:1016F00021F4C5010E94B30F6C01EB81FC81D08EF7
:10170000C78AC114D10429F4CF010E94A30F8FEF1F
:10171000D5C0C60165EA70E0A5010E94692608945B
:10172000A108B108EB81FC81E788F08CEA0CFB1C76
:10173000CF014996B40148E050E00E947026EB8149
:10174000FC8110A2052DF3E0F51508F403E0EB8110
:10175000FC81068B42E0C42ED12CCE0EDF1EC601CA
:101760000E94A4048B819C810C960E94A4048B810E
:101770009C81FC019187808784E090E0801B910927
:1017800095878487F38BE28BC70169817A81A101F8
:101790000E949F0CEB81FC81918380836114710412
:1017A00021F0CF01F301918380830FB6F8940F925B
:1017B0008091A9038F5F8093A9038091A0039091EA
:1017C000A103892BB9F5EB81FC81F093A103E09390
:1017D000A0038091A9038130F1F58EEA93E00E9485
:1017E000940487EB93E00E94940480EC93E00E94C1
:1017F000940489EC93E00E94940432EDE32E33E0EC
:10180000F32EC7010E9494040BED13E0C8010E945F
:10181000940488EE93E00E94940481EF93E00E9488
:101820009404F092E503E092E4031093E70300933D
:10183000E60311C08091AA03882369F4E091A00314
:10184000F091A1038689581630F08B819C8190938A
:10185000A1038093A003EB81FC8196898091AD0365
:10186000891710F49093AD038091AC038F5F809340
:10187000AC03EB81FC8196898091A703891710F452
:101880009093A703EB81FC81868929E0829FC001A8
:10189000112482559C4FB6010E94A8040F900FBEE0
:1018A0008091AA03882349F0E091A003F091A1035D
:1018B0008689851510F40E94800D81E00F900F90AD
:1018C0000F900F90CF91DF911F910F91FF90EF90AC
:1018D000DF90CF90BF90AF909F908F907F906F9050
:1018E0005F903F902F900895AF92BF92CF92DF927A
:1018F000EF92FF920F9380E19BE062E972E045E591
:1019000050E020E030E000E0EE24FF24CC24DD2491
:10191000AA24BB240E94500B813049F4F894809390
:10192000AA031092A5031092A4030E94E70C0F9142
:10193000FF90EF90DF90CF90BF90AF900895FC01A3
:1019400091E1908322E2229383E3829362937293E4
:10195000129280E88293129282E0829383E08293D3
:1019600084E0829385E0829386E0829387E082938D
:1019700088E0829389E0829380E18293929382E16E
:10198000829383E1829384E1829385E1829386E16D
:10199000829387E1829388E1829389E1829380E256
:1019A000829381E28293229383E2829342935293C1
:1019B00086E2829387E2829388E2829389E282932D
:1019C00080E3829381E382933197CF01089510924F
:1019D000890089EF809388008BE080938100EFE697
:1019E000F0E0808182608083A091A003B091A10388
:1019F000CD91CDBFDD91DEBFFF91EF91DF91CF9112
:101A0000BF91AF919F918F917F916F915F914F9116
:101A10003F912F911F910F91FF90EF90DF90CF900A
:101A2000BF90AF909F908F907F906F905F904F90FE
:101A30003F902F901F900F900FBE0F90089581E060
:101A4000089508950F920FB6F8940F921F921124E3
:101A50002F923F924F925F926F927F928F929F92BE
:101A6000AF92BF92CF92DF92EF92FF920F931F93AC
:101A70002F933F934F935F936F937F938F939F9396
:101A8000AF93BF93CF93DF93EF93FF93A091A00306
:101A9000B091A1030DB60D920EB60D920E94FB08F7
:101AA0000E942D08A091A003B091A103CD91CDBFBC
:101AB000DD91DEBFFF91EF91DF91CF91BF91AF91AB
:101AC0009F918F917F916F915F914F913F912F9156
:101AD0001F910F91FF90EF90DF90CF90BF90AF904C
:101AE0009F908F907F906F905F904F903F902F903E
:101AF0001F900F900FBE0F9008950E94220D189511
:101B00000F920FB6F8940F921F9211242F923F92CA
:101B10004F925F926F927F928F929F92AF92BF92FD
:101B2000CF92DF92EF92FF920F931F932F933F93E9
:101B30004F935F936F937F938F939F93AF93BF93D5
:101B4000CF93DF93EF93FF93A091A003B091A103F4
:101B50000DB60D920EB60D920E942D08A091A00315
:101B6000B091A103CD91CDBFDD91DEBFFF91EF918B
:101B7000DF91CF91BF91AF919F918F917F916F91A5
:101B80005F914F913F912F911F910F91FF90EF9097
:101B9000DF90CF90BF90AF909F908F907F906F908D
:101BA0005F904F903F902F901F900F900FBE0F901F
:101BB00008950F931F93CF93DF93FC0180818823B7
:101BC00019F4C0E0D0E005C00580F681E02DC681A3
:101BD000D7818E01045F1F4FC8010E9406058BE26A
:101BE00094E0B8010E94A80420E0E091FA03F0918B
:101BF000FB039E898689981708F021E0822FDF91E8
:101C0000CF911F910F910895FF920F931F93CF9340
:101C1000DF9399E0F92E28C0F89480912B04882353
:101C200019F4C0E0D0E006C0E0913004F091310436
:101C3000C681D781CE010C960E94060578948E014C
:101C40000E5F1F4FC8010E9406059E898091FC030C
:101C5000891710F49093FC039F9DC00111248D5FA0
:101C60009B4FB8010E94A80480912B048823A1F601
:101C70000E9419082091FD033091FE03821B930BF3
:101C8000909300048093FF0389E0F82E54C00196DE
:101C9000909302048093010421503040309300045B
:101CA0002093FF03892BC9F5209127043091280444
:101CB0008091290490912A0490932804809327040A
:101CC00030932A042093290428C0209101043091E4
:101CD00002048A819B812817390768F1F8948E01E4
:101CE0000E5F1F4FC8010E9406058C899D89892BB4
:101CF00021F0CE010C960E94060578949E89809171
:101D0000FC03891710F49093FC039F9DC0011124DC
:101D10008D5F9B4FB8010E94A804E0912704F091C9
:101D200028048081882339F00580F681E02DC68162
:101D3000D781209751F62091FF03309100048091C4
:101D40000104909102042115310509F0A0CF909370
:101D5000FE038093FD039091FC0329E006C09923C4
:101D600019F41092FC0332C09150929FD0011124BB
:101D7000AD5FBB4F8C91882391F39093FC03119638
:101D8000ED91FC9112970280F381E02D1296FC9365
:101D9000EE931197CD010396E817F90731F482818C
:101DA000938112969C938E9311971196ED91FC91CD
:101DB00012970680F781E02DF093FB03E093FA037E
:101DC00020813181CF016789F9010995DF91CF9198
:101DD0001F910F91FF9008950F931F93CF93DF935F
:101DE000EB010091010410910204080F191F80916A
:101DF000FA039091FB0302960E940605E091FA0314
:101E0000F091FB03138302838091010490910204FB
:101E1000BF016E5F7F4F0817190728F480912904CE
:101E200090912A0404C080912704909128040E9474
:101E3000D104209749F06091FA037091FB03645F2D
:101E40007F4FCE010E94D104DF91CF911F910F915E
:101E50000895AF92BF92CF92DF92EF92FF920F93CD
:101E60001F93CF93DF936C01B62EA42E8AE190E0EE
:101E70000E94B30FEC01009711F48FEF59C08091CD
:101E8000FA039091FB03892B21F5D093FB03C093B8
:101E9000FA0383E094E00E9494048CE094E00E94B2
:101EA000940425E1E22E24E0F22EC7010E9494045E
:101EB0000EE114E0C8010E9494048BE294E00E94B9
:101EC0009404F0922804E092270410932A040093CB
:101ED0002904EB2CBB2011F0EE24E394198E188E0C
:101EE000EE8AAF8AFE01C192D1928F01CF010E948A
:101EF000A404CE010C960E94A404D987C887DB8B6A
:101F0000CA8B84E090E08E1991099D878C879E8909
:101F10008091FC03891710F49093FC0389E0989F4B
:101F2000C00111248D5F9B4FB8010E94A80481E07D
:101F3000DF91CF911F910F91FF90EF90DF90CF90A5
:101F4000BF90AF9008950895109235041092340414
:101F500008952CED35E08091340490913504281BD0
:101F6000390BC90108950F931F93CF93DF938C0111
:101F70000E94130880913404909135049801280F31
:101F8000391F45E02C3D340758F48217930740F47D
:101F9000EC01CA5CDB4F309335042093340402C05B
:101FA000C0E0D0E00E94AA09CE01DF91CF911F913D
:101FB0000F910895E82FF0E0E770F070EE0FFF1F2B
:101FC000EF5FFE4F25913491C9010895E82FF0E0AD
:101FD000E770F070EE0FFF1FE35FFE4F2591349125
:101FE000C901089585B5E82FF0E0E770F070EE0FB5
:101FF000FF1FEF5FFE4F25913491C9010895809135
:102000008100E82FF0E0E770F070EE0FFF1FEF5F48
:10201000FE4F25913491C90108958091B100E82FB8
:10202000F0E0E770F070EE0FFF1FE35FFE4F2591C9
:102030003491C901089580919100E82FF0E0E77094
:10204000F070EE0FFF1FEF5FFE4F25913491C90135
:1020500008958091A100E82FF0E0E770F070EE0F96
:10206000FF1FEF5FFE4F25913491C90108958091C4
:102070002101E82FF0E0E770F070EE0FFF1FEF5F37
:10208000FE4F25913491C90108952091980C30910B
:10209000990C40919A0C50919B0CB901CA0108957A
:1020A0002091940C3091950C4091960C5091970C86
:1020B000B901CA01089520919C0C30919D0C40916A
:1020C0009E0C50919F0CB901CA0108952091A40C57
:1020D0003091A50C4091A60C5091A70CB901CA01F2
:1020E00008952091900C3091910C4091920C509158
:1020F000930CB901CA0108952091A80C3091A90C44
:102100004091AA0C5091AB0CB901CA01089586B553
:1021100008952091840030918500C901089580912F
:10212000B20008952091940030919500C90108955E
:102130002091A4003091A500C901089520912401A7
:1021400030912501C90108951092980C1092990CB4
:1021500010929A0C10929B0C16BC08951092940C3D
:102160001092950C1092960C1092970C109285007C
:1021700010928400089510929C0C10929D0C109265
:102180009E0C10929F0C1092B20008951092A40C15
:102190001092A50C1092A60C1092A70C109295000C
:1021A0001092940008951092900C1092910C10923D
:1021B000920C1092930C1092A5001092A400089516
:1021C0001092A80C1092A90C1092AA0C1092AB0CB1
:1021D00010922501109224010895089585BD81E093
:1021E00080936E001092980C1092990C10929A0C99
:1021F00010929B0C16BC08958093810081E080931F
:102200006F001092940C1092950C1092960C1092F4
:10221000970C109285001092840008958093B1006D
:1022200081E08093700010929C0C10929D0C109293
:102230009E0C10929F0C1092B20008958093910012
:1022400081E0809371001092A40C1092A50C109262
:10225000A60C1092A70C109295001092940008956D
:102260008093A10081E0809372001092900C1092F4
:10227000910C1092920C1092930C1092A500109257
:10228000A40008958093210181E08093730010924F
:10229000A80C1092A90C1092AA0C1092AB0C1092E0
:1022A0002501109224010895E82FF0E0EE0FFF1FA2
:1022B000EE5EF54F718360830895E82FF0E0EE0F36
:1022C000FF1FEE5EF54F1182108208950197F1F71E
:1022D0000895AF92BF92CF92DF92EF92FF920F9349
:1022E0001F93A0E0B0E0BC01CD010E94F2235B018E
:1022F0006C0120E030E04AE755E40E94DA207B01DF
:102300008C0120E030E040E85FE30E941023882346
:102310001CF461E070E024C0C801B70120E03FEF89
:102320004FE757E40E94B0221816B4F4C601B50175
:1023300020E030E040E251E40E94DA200E94041FD5
:1023400080E991E005C0FC013197F1F761507040E0
:1023500061157105C1F707C0C801B7010E94041FCC
:10236000CB010197F1F71F910F91FF90EF90DF9054
:10237000CF90BF90AF9008951F920F920FB60F921B
:1023800011242F933F934F935F936F937F938F937A
:102390009F93AF93BF93EF93FF938091980C90918D
:1023A000990CA0919A0CB0919B0C0196A11DB11DA6
:1023B0008093980C9093990CA0939A0CB0939B0CDB
:1023C0008091A00C9091A10CA091A20CB091A30CB3
:1023D0000196A11DB11D8093A00C9093A10CA09318
:1023E000A20CB093A30C8091160A9091170A892B26
:1023F00029F0E091160AF091170A0995FF91EF91E3
:10240000BF91AF919F918F917F916F915F914F910C
:102410003F912F910F900FBE0F901F9018951F9214
:102420000F920FB60F9211242F933F934F935F9308
:102430006F937F938F939F93AF93BF93EF93FF938C
:102440008091940C9091950CA091960CB091970C62
:102450000196A11DB11D8093940C9093950CA093AF
:10246000960CB093970C8091200A9091210A892BA9
:1024700029F0E091200AF091210A0995FF91EF914E
:10248000BF91AF919F918F917F916F915F914F918C
:102490003F912F910F900FBE0F901F9018951F9294
:1024A0000F920FB60F9211242F933F934F935F9388
:1024B0006F937F938F939F93AF93BF93EF93FF930C
:1024C00080919C0C90919D0CA0919E0CB0919F0CC2
:1024D0000196A11DB11D80939C0C90939D0CA0931F
:1024E0009E0CB0939F0C8091260A9091270A892B0D
:1024F00029F0E091260AF091270A0995FF91EF91C2
:10250000BF91AF919F918F917F916F915F914F910B
:102510003F912F910F900FBE0F901F9018951F9213
:102520000F920FB60F9211242F933F934F935F9307
:102530006F937F938F939F93AF93BF93EF93FF938B
:102540008091A40C9091A50CA091A60CB091A70C21
:102550000196A11DB11D8093A40C9093A50CA0938E
:10256000A60CB093A70C8091300A9091310A892B68
:1025700029F0E091300AF091310A0995FF91EF912D
:10258000BF91AF919F918F917F916F915F914F918B
:102590003F912F910F900FBE0F901F9018951F9293
:1025A0000F920FB60F9211242F933F934F935F9387
:1025B0006F937F938F939F93AF93BF93EF93FF930B
:1025C0008091900C9091910CA091920CB091930CF1
:1025D0000196A11DB11D8093900C9093910CA09336
:1025E000920CB093930C80913A0A90913B0A892BFC
:1025F00029F0E0913A0AF0913B0A0995FF91EF9199
:10260000BF91AF919F918F917F916F915F914F910A
:102610003F912F910F900FBE0F901F9018951F9212
:102620000F920FB60F9211242F933F934F935F9306
:102630006F937F938F939F93AF93BF93EF93FF938A
:102640008091A80C9091A90CA091AA0CB091AB0C10
:102650000196A11DB11D8093A80C9093A90CA09385
:10266000AA0CB093AB0C8091440A9091450A892B37
:1026700029F0E091440AF091450A0995FF91EF9104
:10268000BF91AF919F918F917F916F915F914F918A
:102690003F912F910F900FBE0F901F9018951F9292
:1026A0000F920FB60F9211242F933F934F935F9386
:1026B0006F937F938F939F93AF93BF93EF93FF930A
:1026C0008091120A9091130A892B29F0E091120A45
:1026D000F091130A0995FF91EF91BF91AF919F91EE
:1026E0008F917F916F915F914F913F912F910F90BB
:1026F0000FBE0F901F9018951F920F920FB60F925A
:1027000011242F933F934F935F936F937F938F93F6
:102710009F93AF93BF93EF93FF938091140A90918F
:10272000150A892B29F0E091140AF091150A0995F0
:10273000FF91EF91BF91AF919F918F917F916F9199
:102740005F914F913F912F910F900FBE0F901F906F
:1027500018951F920F920FB60F9211242F933F934B
:102760004F935F936F937F938F939F93AF93BF9399
:10277000EF93FF938091180A9091190A892B29F001
:10278000E091180AF091190A0995FF91EF91BF9114
:10279000AF919F918F917F916F915F914F913F91F9
:1027A0002F910F900FBE0F901F9018951F920F92B0
:1027B0000FB60F9211242F933F934F935F936F9314
:1027C0007F938F939F93AF93BF93EF93FF938091EA
:1027D0001C0A90911D0A892B29F0E0911C0AF091A6
:1027E0001D0A0995FF91EF91BF91AF919F918F9134
:1027F0007F916F915F914F913F912F910F900FBEFD
:102800000F901F9018951F920F920FB60F921124E0
:102810002F933F934F935F936F937F938F939F93E8
:10282000AF93BF93EF93FF9380911E0A90911F0A7D
:10283000892B29F0E0911E0AF0911F0A0995FF915A
:10284000EF91BF91AF919F918F917F916F915F9128
:102850004F913F912F910F900FBE0F901F901895A1
:102860001F920F920FB60F9211242F933F934F9305
:102870005F936F937F938F939F93AF93BF93EF93E8
:10288000FF938091220A9091230A892B29F0E091ED
:10289000220AF091230A0995FF91EF91BF91AF9120
:1028A0009F918F917F916F915F914F913F912F9168
:1028B0000F900FBE0F901F9018951F920F920FB69A
:1028C0000F9211242F933F934F935F936F937F93B6
:1028D0008F939F93AF93BF93EF93FF938091240ABD
:1028E0009091250A892B29F0E091240AF091250A7C
:1028F0000995FF91EF91BF91AF919F918F917F913A
:102900006F915F914F913F912F910F900FBE0F905C
:102910001F9018951F920F920FB60F9211242F93AC
:102920003F934F935F936F937F938F939F93AF9357
:10293000BF93EF93FF938091280A9091290A892BE6
:1029400029F0E091280AF091290A0995FF91EF9169
:10295000BF91AF919F918F917F916F915F914F91B7
:102960003F912F910F900FBE0F901F9018951F92BF
:102970000F920FB60F9211242F933F934F935F93B3
:102980006F937F938F939F93AF93BF93EF93FF9337
:1029900080912A0A90912B0A892B29F0E0912A0A2A
:1029A000F0912B0A0995FF91EF91BF91AF919F9103
:1029B0008F917F916F915F914F913F912F910F90E8
:1029C0000FBE0F901F9018951F920F920FB60F9287
:1029D00011242F933F934F935F936F937F938F9324
:1029E0009F93AF93BF93EF93FF9380912C0A9091A5
:1029F0002D0A892B29F0E0912C0AF0912D0A0995D6
:102A0000FF91EF91BF91AF919F918F917F916F91C6
:102A10005F914F913F912F910F900FBE0F901F909C
:102A200018951F920F920FB60F9211242F933F9378
:102A30004F935F936F937F938F939F93AF93BF93C6
:102A4000EF93FF9380912E0A90912F0A892B29F002
:102A5000E0912E0AF0912F0A0995FF91EF91BF9115
:102A6000AF919F918F917F916F915F914F913F9126
:102A70002F910F900FBE0F901F9018951F920F92DD
:102A80000FB60F9211242F933F934F935F936F9341
:102A90007F938F939F93AF93BF93EF93FF93809117
:102AA000320A9091330A892B29F0E091320AF09191
:102AB000330A0995FF91EF91BF91AF919F918F914B
:102AC0007F916F915F914F913F912F910F900FBE2A
:102AD0000F901F9018951F920F920FB60F9211240E
:102AE0002F933F934F935F936F937F938F939F9316
:102AF000AF93BF93EF93FF938091340A9091350A7F
:102B0000892B29F0E091340AF091350A0995FF915B
:102B1000EF91BF91AF919F918F917F916F915F9155
:102B20004F913F912F910F900FBE0F901F901895CE
:102B30001F920F920FB60F9211242F933F934F9332
:102B40005F936F937F938F939F93AF93BF93EF9315
:102B5000FF938091360A9091370A892B29F0E091F2
:102B6000360AF091370A0995FF91EF91BF91AF9125
:102B70009F918F917F916F915F914F913F912F9195
:102B80000F900FBE0F901F9018951F920F920FB6C7
:102B90000F9211242F933F934F935F936F937F93E3
:102BA0008F939F93AF93BF93EF93FF938091380AD6
:102BB0009091390A892B29F0E091380AF091390A6D
:102BC0000995FF91EF91BF91AF919F918F917F9167
:102BD0006F915F914F913F912F910F900FBE0F908A
:102BE0001F9018951F920F920FB60F9211242F93DA
:102BF0003F934F935F936F937F938F939F93AF9385
:102C0000BF93EF93FF9380913C0A90913D0A892BEB
:102C100029F0E0913C0AF0913D0A0995FF91EF916E
:102C2000BF91AF919F918F917F916F915F914F91E4
:102C30003F912F910F900FBE0F901F9018951F92EC
:102C40000F920FB60F9211242F933F934F935F93E0
:102C50006F937F938F939F93AF93BF93EF93FF9364
:102C600080913E0A90913F0A892B29F0E0913E0A1B
:102C7000F0913F0A0995FF91EF91BF91AF919F911C
:102C80008F917F916F915F914F913F912F910F9015
:102C90000FBE0F901F9018951F920F920FB60F92B4
:102CA00011242F933F934F935F936F937F938F9351
:102CB0009F93AF93BF93EF93FF938091400A9091BE
:102CC000410A892B29F0E091400AF091410A0995C7
:102CD000FF91EF91BF91AF919F918F917F916F91F4
:102CE0005F914F913F912F910F900FBE0F901F90CA
:102CF00018951F920F920FB60F9211242F933F93A6
:102D00004F935F936F937F938F939F93AF93BF93F3
:102D1000EF93FF938091420A9091430A892B29F007
:102D2000E091420AF091430A0995FF91EF91BF911A
:102D3000AF919F918F917F916F915F914F913F9153
:102D40002F910F900FBE0F901F9018951F920F920A
:102D50000FB60F9211242F933F934F935F936F936E
:102D60007F938F939F93AF93BF93EF93FF9300D085
:102D70000F9281E0EDB7FEB781838DE191E09383FF
:102D800082830E94701E0F900F900F90FF91EF9121
:102D9000BF91AF919F918F917F916F915F914F9173
:102DA0003F912F910F900FBE0F901F901895843078
:102DB00040F4E82FF0E0EE0FFF1FEA57F34F718366
:102DC000608308951F93182F9A01AB01CA01B901BE
:102DD00060587B47814E9F4FF3E0660F771F881F37
:102DE000991FFA95D1F7E4E0220F331F441F551FB6
:102DF000EA95D1F70E94A62621503040133029F4DD
:102E0000209334013093350112C0123029F42093FD
:102E1000D4003093D5000BC0113029F42093CC009E
:102E20003093CD0004C02093C4003093C5001F919F
:102E30000895282F30E0A3E0220F331FAA95E1F771
:102E40002055334FC9010895282F30E0B3E0220FF9
:102E5000331FBA95E1F72C52334FC9010895E82F7B
:102E6000833039F48091300185FFFCCF60933601C7
:102E700018C0823039F48091D00085FFFCCF609378
:102E8000D6000FC0813039F48091C80085FFFCCF97
:102E90006093CE0006C08091C00085FFFCCF609398
:102EA000C600F0E0E455F34F10820895682F80E0EB
:102EB0000E942F170895682F81E00E942F17089510
:102EC000682F82E00E942F170895682F83E00E94E8
:102ED0002F17089520E0E82FF0E083E0EE0FFF1FAA
:102EE0008A95E1F7EC54F34F80819181892B09F4A5
:102EF00021E0822F0895CF93DF93833019F46091FE
:102F000036010CC0823019F46091D60007C08130C0
:102F100019F46091CE0002C06091C600282F30E005
:102F2000E901CC0FDD1FFE01EA57F34F808191814B
:102F3000892B31F00190F081E02D862F099514C086
:102F400093E0220F331F9A95E1F7C9018055934F03
:102F50000E94871B882341F4FE01EC50F34F8081CF
:102F60009181019691838083DF91CF9108951F9283
:102F70000F920FB60F9211242F933F934F935F93AD
:102F80006F937F938F939F93AF93BF93EF93FF9331
:102F900083E00E947B17FF91EF91BF91AF919F91CA
:102FA0008F917F916F915F914F913F912F910F90F2
:102FB0000FBE0F901F9018951F920F920FB60F9291
:102FC00011242F933F934F935F936F937F938F932E
:102FD0009F93AF93BF93EF93FF9382E00E947B1781
:102FE000FF91EF91BF91AF919F918F917F916F91E1
:102FF0005F914F913F912F910F900FBE0F901F90B7
:1030000018951F920F920FB60F9211242F933F9392
:103010004F935F936F937F938F939F93AF93BF93E0
:10302000EF93FF9381E00E947B17FF91EF91BF9197
:10303000AF919F918F917F916F915F914F913F9150
:103040002F910F900FBE0F901F9018951F920F9207
:103050000FB60F9211242F933F934F935F936F936B
:103060007F938F939F93AF93BF93EF93FF9380E0F2
:103070000E947B17FF91EF91BF91AF919F918F912C
:103080007F916F915F914F913F912F910F900FBE64
:103090000F901F9018958F929F92AF92BF92CF92F0
:1030A000DF92EF92FF920F931F93CF93DF93882EBF
:1030B000DB01C82EDD24F60113E0EE0FFF1F1A9589
:1030C000E1F7E852F34F20813181240F351FF601DB
:1030D00073E0EE0FFF1F7A95E1F7EA52F34F80811C
:1030E00091812817390770F54115510559F19C90C8
:1030F000760163E0EE0CFF1C6A95E1F784ED9CE03D
:10310000E80EF91E8D01C0E0D0E05A010894A10834
:10311000B10806C0C701F80160810E94871B219693
:103120000F5F1F4FCA15DB05A8F380ED9CE0C80EAA
:10313000D91E8FEFF6018083882D692D0E942F17ED
:103140008FEF01C080E0DF91CF911F910F91FF9031
:10315000EF90DF90CF90BF90AF909F908F900895A9
:1031600090E023E0880F991F2A95E1F78C52934F46
:103170000E94871B0895682F8CEE9CE00E94871B9D
:103180000895682F84EE9CE00E94871B0895682FA5
:103190008CED9CE00E94871B0895682F84ED9CE0D5
:1031A0000E94871B0895CF93DF93282FA82FB0E0AC
:1031B000ED01C053D34F8881882379F1FD0133E0BD
:1031C000EE0FFF1F3A95E1F7E852F34F80819181AE
:1031D000892B11F1233039F48CEE9CE00E941E1BE8
:1031E000809336011EC0223039F484EE9CE00E94A8
:1031F0001E1B8093D60015C0213039F48CED9CE065
:103200000E941E1B8093CE000CC084ED9CE00E94A7
:103210001E1B8093C60005C01882A455B34F8FEFC4
:103220008C93DF91CF9108951F920F920FB60F925A
:1032300011242F933F934F935F936F937F938F93BB
:103240009F93AF93BF93EF93FF9383E00E94D318B4
:10325000FF91EF91BF91AF919F918F917F916F916E
:103260005F914F913F912F910F900FBE0F901F9044
:1032700018951F920F920FB60F9211242F933F9320
:103280004F935F936F937F938F939F93AF93BF936E
:10329000EF93FF9382E00E94D318FF91EF91BF91CB
:1032A000AF919F918F917F916F915F914F913F91DE
:1032B0002F910F900FBE0F901F9018951F920F9295
:1032C0000FB60F9211242F933F934F935F936F93F9
:1032D0007F938F939F93AF93BF93EF93FF9381E07F
:1032E0000E94D318FF91EF91BF91AF919F918F9161
:1032F0007F916F915F914F913F912F910F900FBEF2
:103300000F901F9018951F920F920FB60F921124D5
:103310002F933F934F935F936F937F938F939F93DD
:10332000AF93BF93EF93FF9380E00E94D318FF9178
:10333000EF91BF91AF919F918F917F916F915F912D
:103340004F913F912F910F900FBE0F901F901895A6
:103350001F93182F90E0FC01E053F34F2FEF2083D1
:1033600043E0880F991F4A95E1F78C52934F0E94D2
:103370001E1B682F812F0E942F171F910895CF9336
:10338000DF93EB01282F30E0F90173E0EE0FFF1F10
:103390007A95E1F7EE54F34F80819181892BC9F042
:1033A000F90163E0EE0FFF1F6A95E1F7EC54F34F6C
:1033B00080819181892B69F053E0220F331F5A9548
:1033C000E1F7C9018055934F0E941E1B88838FEF40
:1033D00001C080E0DF91CF910895DF93CF930F92EA
:1033E000CDB7DEB783E0BE016F5F7F4F0E94BF198C
:1033F000882319F42FEF3FEF03C08981282F30E095
:10340000C9010F90CF91DF910895DF93CF930F9271
:10341000CDB7DEB782E0BE016F5F7F4F0E94BF195C
:10342000882319F42FEF3FEF03C08981282F30E064
:10343000C9010F90CF91DF910895DF93CF930F9241
:10344000CDB7DEB781E0BE016F5F7F4F0E94BF192D
:10345000882319F42FEF3FEF03C08981282F30E034
:10346000C9010F90CF91DF910895DF93CF930F9211
:10347000CDB7DEB780E0BE016F5F7F4F0E94BF19FE
:10348000882319F42FEF3FEF03C08981282F30E004
:10349000C9010F90CF91DF91089590E0E3E0880F8C
:1034A000991FEA95E1F78055934F0E94BA1B089542
:1034B00088EC9CE066EF7BE040E850E00E94111B46
:1034C0008CEE9CE066E77CE040E150E00E94111B3E
:1034D00008950E94581A10928D0C10928C0C88ED51
:1034E0008093310183E040E855E260E070E00E94A3
:1034F000E2168FEF8093AF0C1092D30C1092FB0C5E
:103500001092FA0C7894089580EC9CE066E67BE0DB
:1035100040E850E00E94111B84EE9CE066EE7BE0E8
:1035200040E150E00E94111B08950E94841A1092FD
:103530008B0C10928A0C88ED8093D10082E040E8D9
:1035400055E260E070E00E94E2168FEF8093AE0CCF
:103550001092D20C1092F90C1092F80C78940895F5
:1035600088EB9CE066ED7AE040E850E00E94111B99
:103570008CED9CE066E57BE040E150E00E94111B91
:1035800008950E94B01A1092890C1092880C88ED50
:103590008093C90081E040E855E260E070E00E945D
:1035A000E2168FEF8093AD0C1092D10C1092F70CB5
:1035B0001092F60C7894089580EB9CE066E47AE033
:1035C00040E850E00E94111B84ED9CE066EC7AE03C
:1035D00040E150E00E94111B08950E94DC1A1092F5
:1035E000870C1092860C88ED8093C10080E040E843
:1035F00055E260E070E00E94E2168FEF8093AC0C21
:103600001092D00C1092F50C1092F40C789408954E
:103610000E94ED1A0E94C11A0E94951A0E94691A0E
:103620000895FC018FB7F8947183608353834283BC
:1036300017821682158214828FBF0895DC014FB75E
:10364000F89414968D919C911597892B11F4E0E0D4
:1036500025C016968D919C911797ED91FC9111972D
:10366000E80FF91FE081019617969C938E931697A9
:1036700012962D913C9113978217930730F0821B7D
:10368000930B17969C938E93169714968D919C91FD
:103690001597019715969C938E9314974FBF8E2F75
:1036A0000895FC014FB7F8948481958168177907D4
:1036B000B0F486819781860F971F97838683228136
:1036C00033818217930720F0821B930B97838683A5
:1036D00084819581861B970B9583848302C0158214
:1036E00014824FBF0895FC01CB012FB7F8942FBF70
:1036F0002681378162817381820F931F0E947F260A
:103700000190F081E02DE80FF91F808108951F934B
:10371000CF93DF93EC01162F4FB7F8942C813D81A6
:103720006A817B812617370798F48E819F81820FEB
:10373000931F0E947F26E881F981E80FF91F10830B
:103740008C819D8101969D838C834FBF8FEF02C03A
:103750004FBF80E0DF91CF911F910895FC018FB79B
:10376000F8948FBF2281338184819581281B390B86
:10377000C9010895FC018FB7F894158214828FBF98
:103780000895AAE7B0E08C9180688C938C918F7D2E
:103790008C938C91887F86608C93ECE7F0E080813D
:1037A0008F738064808380818F7D80838C9188601B
:1037B0008C931092FC0C78940895EAE7F0E08081F5
:1037C000877F808380818F7780830895EAE7F0E0A8
:1037D0009081987F982B90830895ECE7F0E090819A
:1037E0008295880F880F807C9F73982B9083089513
:1037F000ECE7F0E090818F71907E892B80830895B3
:10380000EAE7F0E08081806180838081806480834A
:10381000089580917A0080740895982F1092FC0C7E
:10382000883020F080917B00886003C080917B000D
:10383000877F80937B0080917C009770887F892BA5
:1038400080937C0080917A00806180937A008091DF
:103850007A00806480937A0080917A0086FDFCCFA4
:103860002091780030917900C90108950E940D1CC3
:10387000969587959695879508951F920F920FB606
:103880000F9211248F938FEF8093FC0C8F910F90E8
:103890000FBE0F901F90189590938F0C80938E0CF5
:1038A00008951F93182F8A3031F4E0918E0CF09117
:1038B0008F0C8DE00995E0918E0CF0918F0C812F8B
:1038C00009951F910895CF93DF93EC01009721F4A0
:1038D00006C021960E94511C88818823D1F7DF9170
:1038E000CF910895EF92FF920F931F93CF93DF93A1
:1038F0008C017A010097E9F020E030E026173707C5
:1039000038F4F80181918F012F5F3F4F8823B1F781
:10391000C0E0D0E00BC0F8018081882319F00F5F70
:103920001F4F01C080E20E94511C2196CE15DF0579
:1039300090F3DF91CF911F910F91FF90EF90089539
:10394000CF93DF93EC01009719F407C00E94511C3C
:10395000FE01219684918823C9F7DF91CF910895C4
:103960008AE00E94511C0895E82FF0E0EF70F0709B
:10397000E25DFE4FE4918E2F0E94511C08951F932B
:10398000182F82958F700E94B41C812F0E94B41C46
:103990001F9108951F93182F892F0E94BF1C812FFC
:1039A0000E94BF1C1F910895EF92FF920F931F93E7
:1039B0007B018C01C801AA27BB270E94CA1CC70132
:1039C0000E94CA1C1F910F91FF90EF9008952F92B3
:1039D0003F924F925F926F927F928F929F92AF929F
:1039E000BF92CF92DF92EF92FF920F931F93DF93DC
:1039F000CF93CDB7DEB7A3970FB6F894DEBF0FBE57
:103A0000CDBF6AA3242E2BA337014801442351F0D4
:103A100017FF08C0EE24FF248701E618F7080809FD
:103A2000190902C0840173012AA1215090E02110DC
:103A300091E0291B29A318A2A82EBB24CC24DD24A5
:103A4000C801B701A60195010E94A626FB01EF70EF
:103A5000F070E25DFE4F64916F8FC801B701A6015F
:103A600095010E94A626C901DA017C018D019EE123
:103A7000492E512C4C0E5D1E39A025C0E114F104D5
:103A800001051105C9F0C801B701A60195010E9401
:103A9000A626FB01EF70F070E25DFE4F6491F2012B
:103AA0006083C801B701A60195010E94A626C9013D
:103AB000DA017C018D0103C02BA1F20120833A942D
:103AC0000894410851083320C9F6CE014F968C0165
:103AD000E9A10E1B11092220F1F097FE05C08DE22D
:103AE000F80182938F0117C0C80101976114710416
:103AF0008104910419F08C018BE202C08C0180E2F8
:103B0000F801808308C0F80181918F010E94511C47
:103B1000FAA1F150FAA32AA12223A9F7A3960FB67E
:103B2000F894DEBF0FBECDBFCF91DF911F910F91F3
:103B3000FF90EF90DF90CF90BF90AF909F908F90CD
:103B40007F906F905F904F903F902F9008954F928D
:103B50005F926F927F928F929F92AF92BF92CF921D
:103B6000DF92EF92FF920F931F93CF93DF93482E34
:103B70005A016B01CB01BA0120E030E040E050E097
:103B80000E94B02218161CF43501460106C035010A
:103B9000460197FA909497F890940F2EF0E0EF2E4C
:103BA000F0E0FF2EF0E80F2FFFE31F2FF02D55243C
:103BB000C401B301A80197010E94D42120E030E0A4
:103BC00040E251E40E94102387FD0EC0C801B701F6
:103BD00020E030E040E251E40E94DA207B018C01D9
:103BE00053948FE0581621F7C601B50120E030E06C
:103BF00040E050E00E941023882314F48DE201C0BD
:103C00008BE20E94511CDD24AA2456C0C401B301DA
:103C1000A80197010E94D4210E94041FB62ED62A23
:103C2000CD2DD0E0CC24DD24C801B70120E030E068
:103C300040E85FE30E948022882319F421E0C22E2D
:103C4000D12CCC29DD29CD2B39F08B2D805D0E9424
:103C5000511CDD24DA9404C080E20E94511CDD2452
:103C6000C801B70120E030E040E85FE30E94802215
:103C7000882319F48EE20E94511C6B2D70E0882776
:103C800077FD8095982F0E944023A80197010E94FC
:103C9000DA209B01AC01C401B3010E947C203B01EE
:103CA0004C01C801B70120E030E040E251E40E943D
:103CB000D4217B018C01A394A41408F4A7CFDF9135
:103CC000CF911F910F91FF90EF90DF90CF90BF9019
:103CD000AF909F908F907F906F905F904F900895DE
:103CE0007F928F929F92AF92BF92CF92DF92EF928C
:103CF000FF920F931F93DF93CF93CDB7DEB77888F2
:103D0000C988DA8863E1E62EF12CEC0EFD1E14C0A2
:103D1000882381F480E090E0CF91DF911F910F9193
:103D2000FF90EF90DF90CF90BF90AF909F908F90DB
:103D30007F9008950E94511C96012F5F3F4F77207E
:103D400021F0F6016901849103C0F60180816901C7
:103D50008532F1F62F5F3F4F772021F0F6016901A0
:103D6000849103C0F60180816901843629F0883787
:103D700081F08336F9F606C000E117E25AE0A52E7D
:103D8000B12C0CC0F701808122E030E0E20EF31E7E
:103D9000D1CF00E010E140E1A42EB12C32E0832E1F
:103DA000912C8E0C9F1CF701E080F1808436B1F4D9
:103DB000F7FE11C0F094E194F108F3948DE20E94B3
:103DC000511C09C0C8016AE070E00E947F268B0187
:103DD0006230710518F0E016F106A0F3C701B801D2
:103DE0000E947F26862F0E94B41CC701B8010E9442
:103DF0007F267C01C801B5010E947F268B016115D9
:103E0000710561F7740198CFEF92FF920F931F93A2
:103E10007B018C0120E030E040E05FE40E94E02282
:103E200088238CF0C801B70120E030E040E05FE477
:103E30000E947C200E949E239B01AC0120503040B8
:103E40004040504806C0C801B7010E949E239B0114
:103E5000AC01B901CA011F910F91FF90EF90089535
:103E6000A0E0B0E0E6E3FFE10C94E326DC012B01E7
:103E7000FA019C91923008F439C1EB0188818230BB
:103E800008F433C1943069F4843009F02FC11196DD
:103E90009C9111978981981709F428C1A7E9B2E08C
:103EA00025C1843009F421C18230A9F4923009F08F
:103EB0001DC19A01AD0188E0EA010990AE01E90156
:103EC00009929E018150C1F7E201898111969C916E
:103ED0008923818308C1923009F407C112962D907D
:103EE0003C901397EB018A819B811496AD90BD9015
:103EF000CD90DC901797EC80FD800E811F819101A1
:103F0000281B390BB90137FF04C066277727621BCE
:103F1000730B603271050CF061C0121613066CF55C
:103F200037014801062E04C09694879477946794CD
:103F30000A94D2F721E030E040E050E004C0220FC4
:103F4000331F441F551F6A95D2F72150304040401F
:103F500050402E213F214023512321153105410599
:103F6000510521F021E030E040E050E079018A0184
:103F7000E628F728082919293CC0232BD1F1260E61
:103F8000371E35014601062E04C096948794779417
:103F900067940A94D2F721E030E040E050E004C09A
:103FA000220F331F441F551F6A95D2F7215030400E
:103FB000404050402A213B214C215D2121153105F3
:103FC0004105510521F021E030E040E050E0590189
:103FD0006A01A628B728C828D9280BC082159305DE
:103FE0002CF01C01AA24BB24650103C0EE24FF248D
:103FF000870111969C91D20111968C91981709F422
:1040000045C0992339F0A80197012A193B094C09A9
:104010005D0906C0A60195012E193F09400B510B01
:1040200057FD08C011823382228224833583468360
:1040300057831DC081E0818333822282882799279C
:10404000DC01821B930BA40BB50B84839583A683A1
:10405000B7830DC0220F331F441F551F24833583A0
:10406000468357838281938101979383828324813E
:10407000358146815781DA01C9010197A109B1094A
:104080008F5F9F4FAF4FBF4328F30BC091833382A5
:104090002282EA0CFB1C0C1D1D1DE482F5820683A6
:1040A000178383E08083248135814681578157FFC0
:1040B0001AC0C901AA2797FDA095BA2F81709070E8
:1040C000A070B0705695479537952795822B932B06
:1040D000A42BB52B84839583A683B7838281938198
:1040E000019693838283DF0101C0D201CD01CDB758
:1040F000DEB7E2E10C94FF26A0E2B0E0E2E8F0E2F5
:104100000C94EF2669837A838B839C832D833E8373
:104110004F835887E9E0EE2EF12CEC0EFD1ECE0108
:104120000196B7010E948F258E010F5E1F4FCE01B1
:104130000596B8010E948F258A8991E089278A8B8C
:10414000C701B801AE01475E5F4F0E94301F0E9459
:10415000BA24A096E6E00C940B27A0E2B0E0E3EBD3
:10416000F0E20C94EF2669837A838B839C832D8302
:104170003E834F835887F9E0EF2EF12CEC0EFD1EA5
:10418000CE010196B7010E948F258E010F5E1F4F51
:10419000CE010596B8010E948F25C701B801AE0176
:1041A000475E5F4F0E94301F0E94BA24A096E6E04F
:1041B0000C940B27A0E2B0E0E0EEF0E20C94E326D2
:1041C00069837A838B839C832D833E834F835887B7
:1041D000CE010196BE01675F7F4F0E948F25CE0101
:1041E0000596BE016F5E7F4F0E948F2599859230A4
:1041F00088F089898230C8F0943019F4823051F403
:1042000004C0843029F4923081F487E992E0C6C07A
:10421000923049F420E09A858A89981321E02A8710
:10422000CE010996BBC0823049F420E09A858A8984
:10423000981321E02A8BCE014196B0C02D843E8494
:104240004F8458886D887E888F88988CEE24FF2450
:104250008701AA24BB24650140E050E060E070E0E3
:10426000E0E0F0E0C10181709070892BE9F0E60C8C
:10427000F71C081D191D9A01AB012A0D3B1D4C1D91
:104280005D1D80E090E0A0E0B0E0E614F7040805D2
:10429000190520F481E090E0A0E0B0E0BA01A901A6
:1042A000480F591F6A1F7B1FAA0CBB1CCC1CDD1CAE
:1042B00097FE08C081E090E0A0E0B0E0A82AB92A0B
:1042C000CA2ADB2A3196E032F10549F0660C771CE8
:1042D000881C991C5694479437942794C3CFFA8529
:1042E000EA892B893C898B859C85280F391F2E5F95
:1042F0003F4F17C0CA0181709070892B61F01695ED
:104300000795F794E79480E090E0A0E0B0E8E82A11
:10431000F92A0A2B1B2B76956795579547952F5FA2
:104320003F4F77FDE7CF0CC0440F551F661F771F27
:1043300017FD4160EE0CFF1C001F111F2150304083
:10434000403090E0590790E0690790E4790760F306
:104350002B8F3C8FDB01CA018F779070A070B070FB
:1043600080349105A105B10561F447FD0AC0E1144F
:10437000F1040105110529F0405C5F4F6F4F7F4F3D
:1043800040781A8EFE1711F081E08A8F4D8F5E8F74
:104390006F8F78A383E0898FCE0149960E94BA245B
:1043A000A096E2E10C94FF26A8E1B0E0EAEDF1E28C
:1043B0000C94EB2669837A838B839C832D833E83C5
:1043C0004F835887B9E0EB2EF12CEC0EFD1ECE0189
:1043D0000196B7010E948F258E010F5E1F4FCE01FF
:1043E0000596B8010E948F252985223008F47EC0E9
:1043F0003989323010F4B8017CC08A859A898927BE
:104400008A87243011F0223031F4231709F06EC06E
:1044100067E972E06EC0343039F41D861E861F864F
:10442000188A1C861B8604C0323021F484E08987F8
:10443000B7015FC02B853C858B899C89281B390B74
:104440003C872B87ED84FE840F851889AD88BE8854
:10445000CF88D88CEA14FB040C051D0540F4EE0C43
:10446000FF1C001F111F215030403C872B8720E08C
:1044700030E040E050E080E090E0A0E0B0E460E0B8
:1044800070E0EA14FB040C051D0540F0282B392BC5
:104490004A2B5B2BEA18FB080C091D09B695A7955A
:1044A00097958795EE0CFF1C001F111F6F5F7F4FC4
:1044B0006F31710531F7DA01C9018F779070A07003
:1044C000B07080349105A105B10561F427FD0AC0E3
:1044D000E114F1040105110529F0205C3F4F4F4F15
:1044E0005F4F20782D873E874F87588BBE01675FCF
:1044F0007F4FCB010E94BA246896EAE00C9407270C
:10450000A8E1B0E0E6E8F2E20C94EF2669837A8352
:104510008B839C832D833E834F83588789E0E82ECD
:10452000F12CEC0EFD1ECE010196B7010E948F25E5
:104530008E010F5E1F4FCE010596B8010E948F2598
:104540008985823040F08989823028F0C701B8011E
:104550000E94072601C081E06896E6E00C940B27D4
:10456000A8E1B0E0E6EBF2E20C94EF2669837A83EF
:104570008B839C832D833E834F83588789E0E82E6D
:10458000F12CEC0EFD1ECE010196B7010E948F2585
:104590008E010F5E1F4FCE010596B8010E948F2538
:1045A0008985823040F08989823028F0C701B801BE
:1045B0000E94072601C08FEF6896E6E00C940B2757
:1045C000A8E1B0E0E6EEF2E20C94EF2669837A838C
:1045D0008B839C832D833E834F83588789E0E82E0D
:1045E000F12CEC0EFD1ECE010196B7010E948F2525
:1045F0008E010F5E1F4FCE010596B8010E948F25D8
:104600008985823040F08989823028F0C701B8015D
:104610000E94072601C08FEF6896E6E00C940B27F6
:10462000A8E1B0E0E6E1F3E20C94EF2669837A8337
:104630008B839C832D833E834F83588789E0E82EAC
:10464000F12CEC0EFD1ECE010196B7010E948F25C4
:104650008E010F5E1F4FCE010596B8010E948F2577
:104660008985823040F08989823028F0C701B801FD
:104670000E94072601C081E06896E6E00C940B27B3
:10468000A8E0B0E0E6E4F3E20C94EC269B01AC0178
:1046900083E08983DA01C9018827B7FD83959927CB
:1046A000AA27BB27B82E211531054105510519F45C
:1046B00082E089833AC08823A9F0203080E038075F
:1046C00080E0480780E8580729F460E070E080E067
:1046D0009FEC30C0EE24FF248701E21AF30A040B9A
:1046E000150B02C079018A018EE1C82ED12CDC8223
:1046F000CB82ED82FE820F831887C801B7010E942A
:104700006B2401971816190684F4082E04C0EE0CC9
:10471000FF1C001F111F0A94D2F7ED82FE820F8347
:104720001887C81AD90ADC82CB82BA82CE010196D8
:104730000E94BA242896E9E00C940827ACE0B0E087
:10474000E4EAF3E20C94F32669837A838B839C83F7
:10475000CE010196BE016B5F7F4F0E948F258D8138
:10476000823061F1823050F1843021F48E818823CF
:1047700051F12EC02F81388537FD20C06E812F3139
:1047800031051CF06623F9F023C08EE190E0821B16
:10479000930B29853A854B855C8504C056954795D2
:1047A000379527958A95D2F76623B1F050954095B5
:1047B000309521953F4F4F4F5F4F0EC020E030E0C6
:1047C00040E050E009C02FEF3FEF4FEF5FE704C03C
:1047D00020E030E040E050E8B901CA012C96E2E068
:1047E0000C940F27A8E0B0E0E8EFF3E20C94EB267E
:1047F0007B018C01611571058105910519F482E039
:10480000898360C083E089838EE1C82ED12CDC824D
:10481000CB82ED82FE820F831887C801B7010E9408
:104820006B24FC013197F7FF3BC0222733272E1B57
:104830003F0B57016801022E04C0D694C794B79469
:10484000A7940A94D2F740E050E060E070E081E085
:1048500090E0A0E0B0E004C0880F991FAA1FBB1F22
:104860002A95D2F70197A109B1098E219F21A02392
:10487000B1230097A105B10521F041E050E060E0CF
:1048800070E04A295B296C297D294D835E836F8303
:1048900078878EE190E08E1B9F0B9C838B8312C0E8
:1048A000309781F00E2E04C0EE0CFF1C001F111F6C
:1048B0000A94D2F7ED82FE820F831887CE1ADF0AA0
:1048C000DC82CB821A82CE0101960E94BA242896FD
:1048D000EAE00C940727EF92FF920F931F937B015E
:1048E0008C0180E0E81680E0F80681E0080780E0AF
:1048F000180788F48FEFE816F1040105110531F06F
:1049000028F088E090E0A0E0B0E017C080E090E000
:10491000A0E0B0E012C080E0E81680E0F80680E099
:10492000080781E0180728F088E190E0A0E0B0E0F7
:1049300004C080E190E0A0E0B0E020E230E040E0A0
:1049400050E0281B390B4A0B5B0B04C016950795EA
:10495000F794E7948A95D2F7F701E156FD4F8081ED
:10496000281B310941095109C9011F910F91FF907D
:10497000EF900895DF92EF92FF920F931F93FC0147
:10498000E480F58006811781D1808081823048F4EF
:1049900080E090E0A0E1B0E0E82AF92A0A2B1B2B86
:1049A000A5C0843009F49FC0823021F4EE24FF2496
:1049B000870105C0E114F1040105110519F4E0E0D7
:1049C000F0E096C0628173819FEF623879070CF046
:1049D0005BC022E83FEF261B370B2A3131052CF054
:1049E00020E030E040E050E02AC0B801A701022EEC
:1049F00004C076956795579547950A94D2F781E05C
:104A000090E0A0E0B0E004C0880F991FAA1FBB1F70
:104A10002A95D2F70197A109B1098E219F21A023E0
:104A2000B1230097A105B10521F081E090E0A0E05D
:104A3000B0E09A01AB01282B392B4A2B5B2BDA0112
:104A4000C9018F779070A070B07080349105A10576
:104A5000B10539F427FF09C0205C3F4F4F4F5F4F2E
:104A600004C0215C3F4F4F4F5F4FE0E0F0E020304B
:104A7000A0E03A07A0E04A07A0E45A0710F0E1E0FE
:104A8000F0E079018A0127C06038710564F5FB0107
:104A9000E158FF4FD801C7018F779070A070B070B8
:104AA00080349105A105B10539F4E7FE0DC080E41D
:104AB00090E0A0E0B0E004C08FE390E0A0E0B0E0C0
:104AC000E80EF91E0A1F1B1F17FF05C01695079554
:104AD000F794E794319687E016950795F794E79455
:104AE0008A95D1F705C0EE24FF248701EFEFF0E0AF
:104AF0006E2F679566276795902F9F77D794DD2453
:104B0000D7948E2F8695492F462B582F5D29B701B4
:104B1000CA011F910F91FF90EF90DF900895FC0163
:104B2000DB01408151812281622F6F7770E0221F6B
:104B30002227221F9381892F880F822B282F30E074
:104B4000991F9927991F11969C931197211531054B
:104B5000A9F5411551056105710511F482E037C0D1
:104B600082E89FEF13969C938E9312979A01AB0164
:104B700067E0220F331F441F551F6A95D1F783E06A
:104B80008C930DC0220F331F441F551F12968D9119
:104B90009C911397019713969C938E9312972030B4
:104BA00080E0380780E0480780E4580758F31496FF
:104BB0002D933D934D935C93179708952F3F3105A7
:104BC00079F4411551056105710519F484E08C9360
:104BD000089564FF03C081E08C9312C01C9210C042
:104BE0002F57304013963C932E93129783E08C936B
:104BF00087E0440F551F661F771F8A95D1F77064B1
:104C000014964D935D936D937C93179708951F931E
:104C1000DC01FB019C91923008F447C08081823016
:104C200008F443C0943051F411961C91843099F5E6
:104C30008181682F70E0611B71093FC0843021F0D1
:104C4000923031F48230B9F18181882389F12DC00D
:104C500011961C9111978230F1F081811817D9F4C7
:104C600012962D913C91139782819381821793071D
:104C700094F028173907BCF014968D919D910D90F2
:104C8000BC91A02D24813581468157812817390791
:104C90004A075B0718F4112341F00AC082179307F3
:104CA000A407B50740F4112319F061E070E005C0D6
:104CB0006FEF7FEF02C060E070E0CB011F910895BD
:104CC000FB01DC0102C001900D9241505040D8F729
:104CD0000895DC0101C06D9341505040E0F7089504
:104CE000FB01DC014150504048F001900D92002042
:104CF000C9F701C01D9241505040E0F70895AA1B2A
:104D0000BB1B51E107C0AA1FBB1FA617B70710F0B6
:104D1000A61BB70B881F991F5A95A9F780959095E8
:104D2000BC01CD01089597FB092E07260AD077FD17
:104D300004D0E5DF06D000201AF4709561957F4F0E
:104D40000895F6F7909581959F4F0895A1E21A2E48
:104D5000AA1BBB1BFD010DC0AA1FBB1FEE1FFF1F1F
:104D6000A217B307E407F50720F0A21BB30BE40B6F
:104D7000F50B661F771F881F991F1A9469F76095B6
:104D80007095809590959B01AC01BD01CF01089570
:104D900097FB092E05260ED057FD04D0D7DF0AD089
:104DA000001C38F450954095309521953F4F4F4F5A
:104DB0005F4F0895F6F790958095709561957F4FB8
:104DC0008F4F9F4F08952F923F924F925F926F9215
:104DD0007F928F929F92AF92BF92CF92DF92EF928B
:104DE000FF920F931F93CF93DF93CDB7DEB7CA1B0C
:104DF000DB0B0FB6F894DEBF0FBECDBF09942A8837
:104E0000398848885F846E847D848C849B84AA84DE
:104E1000B984C884DF80EE80FD800C811B81AA816B
:104E2000B981CE0FD11D0FB6F894DEBF0FBECDBF36
:084E3000ED010895F894FFCF95
:104E380064006400620061005E005B00570052007D
:104E48004D0047004000390032002A0022001A00B5
:104E5800110009000000F7FFEFFFE6FFDEFFD6FFB5
:104E6800CEFFC7FFC0FFB9FFB3FFAEFFA9FFA5FF85
:104E7800A2FF9FFF9EFF9CFF9CFF9CFF9EFF9FFF42
:104E8800A2FFA5FFA9FFAEFFB3FFB9FFC0FFC7FF91
:104E9800CEFFD6FFDEFFE6FFEFFFF7FF00000900B9
:104EA80011001A0022002A00320039004000470091
:104EB8004D00520057005B005E0061006200640014
:104EC800640049444C450000000000000000000058
:104ED8000102020303030304040404040404040594
:104EE8000505050505050505050505050505050669
:104EF800060606060606060606060606060606064A
:104F08000606060606060606060606060606060738
:104F18000707070707070707070707070707070719
:104F28000707070707070707070707070707070709
:104F380007070707070707070707070707070707F9
:104F480007070707070707070707070707070708E8
:104F580008080808080808080808080808080808C9
:104F680008080808080808080808080808080808B9
:104F780008080808080808080808080808080808A9
:104F88000808080808080808080808080808080899
:104F98000808080808080808080808080808080889
:104FA8000808080808080808080808080808080879
:104FB8000808080808080808080808080808080869
:104FC8000808080808080808080808080808080061
:00000001FF
